:020000040800F2
:10000000900400200D020008E918000831180008CB
:10001000E51800084D030008451F00080000000017
:10002000000000000000000000000000ED180008C3
:100030005103000800000000EB180008EF1800084A
:1000400027020008270200082702000827020008EC
:1000500027020008270200082702000827020008DC
:1000600027020008270200082702000827020008CC
:1000700027020008270200082702000827020008BC
:1000800027020008270200082702000827020008AC
:10009000270200082702000827020008270200089C
:1000A000270200082702000827020008270200088C
:1000B000270200082702000827020008270200087C
:1000C000270200082702000827020008270200086C
:1000D000270200082702000827020008270200085C
:1000E000270200082702000827020008270200084C
:1000F000270200082702000827020008270200083C
:10010000270200082702000827020008270200082B
:10011000270200082702000827020008270200081B
:10012000270200082702000827020008270200080B
:1001300027020008270200082702000827020008FB
:1001400027020008270200082702000827020008EB
:1001500027020008270200082702000827020008DB
:1001600027020008270200082702000827020008CB
:1001700027020008270200082702000800000000EC
:1001800027020008270200082702000827020008AB
:10019000270200082702000827020008270200089B
:1001A000270200082702000827020008270200088B
:1001B000270200082702000827020008270200087B
:1001C000270200082702000800000000270200089C
:1001D000270200082702000827020008270200085B
:1001E000270200082702000827020008270200084B
:1001F0002702000827020008DFF80CD000F094F86E
:1002000000480047A11F00089004002006488047CE
:1002100006480047FEE7FEE7FEE7FEE7FEE7FEE7EB
:10022000FEE7FEE7FEE7FEE795190008F901000882
:100230002DE9F05F0546002092469B46884606461B
:10024000814640241BE0284641464746224600F0AE
:100250005AF853465A46C01A914110D311461846CF
:10026000224600F041F82D1A67EB01084F4622465E
:100270000120002100F038F817EB00094E41201E44
:10028000A4F10104DFDC484631462A464346BDE876
:10029000F09F40EA01039B0703D009E008C9121F41
:1002A00008C0042AFAD203E011F8013B00F8013B30
:1002B000521EF9D27047D2B201E000F8012B491E5C
:1002C000FBD270470022F6E710B513460A460446F3
:1002D0001946FFF7F0FF204610BD421C10F8011B25
:1002E0000029FBD1801A7047202A04DB203A00FA4B
:1002F00002F1002070479140C2F1200320FA03F37D
:10030000194390407047202A04DB203A21FA02F07A
:100310000021704721FA02F3D040C2F1200291403F
:100320000843194670470000064C074D06E0E06898
:1003300040F0010394E8070098471034AC42F6D32C
:10034000FFF75EFF1C2000083C20000800BFFEE70E
:100350007047704770B5044600F022F906462546FE
:10036000681C10B104480078054400BF00F018F97B
:10037000801BA842FAD370BD08000020F8B50246E1
:100380000B46002100250024002000BFE4E00126E8
:1003900006FA01F51E6806EA0504AC4271D15E68F2
:1003A000022E02D05E68122E13D1CF0802F1200671
:1003B00056F827004E07F70E0F26BE40B0434F07F2
:1003C000FF0E1E69BE403043CF0802F1200646F8FA
:1003D000270010684F000326BE40B0431E7906F088
:1003E00003064F00BE40304310605E68012E08D007
:1003F0005E68022E05D05E68112E02D05E68122E55
:1004000013D190684F000326BE40B0434F00DE6812
:10041000BE4030439060506801268E40B0431E7944
:10042000C6F300168E4030435060D0684F0003265C
:10043000BE40B0434F009E68BE403043D0605E680F
:1004400006F08056B6F1805FA8D100BF444E3668F2
:1004500046F48046424F3E603E46366806F480468B
:10046000009600BF00BF3F4E8F0856F827008E074A
:10047000370F0F26BE40B0433B4EB24202D100269A
:100480002EE068E0394EB24201D1012628E0384E14
:10049000B24201D1022623E0364EB24201D10326F8
:1004A0001EE0354EB24201D1042619E0334EB2426D
:1004B00001D1052614E0324EB24201D106260FE0EA
:1004C000304EB24201D107260AE02F4EB24201D18E
:1004D000082605E02D4EB24201D1092600E00A2689
:1004E0008F073F0FBE4030431E4E8F0846F827004F
:1004F000274E3068A0435E6806F48036B6F5803F2C
:1005000000D12043224E3060361D3068A0435E6823
:1005100006F40036B6F5003F00D120431C4E361DD0
:100520003060361D3068A0435E6806F48016B6F56C
:10053000801F00D12043164E08363060361D3068CB
:10054000A0435E6806F40016B6F5001F00D12043F4
:100550000F4E0C363060491C1029FFF418AFF8BD5F
:1005600044380240083801400000024000040240C4
:1005700000080240000C024000100240001402403B
:1005800000180240001C02400020024000240240EB
:10059000003C01400AB1816101E00B0483617047B6
:1005A0000148006870470000000000200348006810
:1005B0000349097808440149086070470000002099
:1005C0000800002010B5032000F08CF8002000F097
:1005D00005F800F029F8002010BD000070B50446B1
:1005E0000E4800784FF47A71B1FBF0F00C490968BD
:1005F000B1FBF0F5284601F01FF808B1012070BDED
:10060000102C07D200222146501E00F02DF805487C
:10061000046001E00120F2E70020F0E7080000207C
:100620000C0000200400002008B500BF0D48006841
:1006300040F080500B4908600846006800F0805088
:10064000009000BF00BF00BF081D006840F480405C
:10065000091D08600846006800F48040009000BF53
:1006600000BF08BD403802402DE9F05F80460D46CE
:100670001646002701F068FC074639462A463346ED
:1006800001F00700C0F1070ABAF1040F02D94FF0D8
:10069000040A01E0C0F1070AD14600F1040ABAF1E8
:1006A000070F02D24FF0000A01E0A0F1030AD4467E
:1006B0004FF0010A0AFA09FAAAF1010A0AEA020A43
:1006C0000AFA0CFA4FF0010B0BFA0CFBABF1010B21
:1006D0000BEA030B4AEA0B042146404601F03CFCBE
:1006E000BDE8F09F00BF00F00702064B19684FF607
:1006F000FF031940044B0B4343EA0221014B1960ED
:1007000000BF70470CED00E00000FA0538B500248A
:1007100000BF2048006840F080501E49086008462D
:10072000006800F08050009000BF00BF1A480068C9
:1007300040F4803018490860FFF732FF044607E0B4
:10074000FFF72EFF001BB0F57A7F01D9032038BDDB
:100750001148406800F48030B0F5803FF0D10E4879
:10076000006840F400300C490860FFF719FF0446A8
:1007700007E0FFF715FF001BB0F57A7F01D90320D2
:10078000E5E70548406800F40030B0F5003FF0D1DF
:100790000020DCE740380240007000402DE9F843BB
:1007A0000446002600250027A846A946207800F028
:1007B000010088B100BFFE48006820F40000FC4939
:1007C000086008460068616B0843F949086000BF8B
:1007D000606B08B94FF00108206800F40020B0F504
:1007E000002F13D1F2488430006820F44010E16BF0
:1007F0000843EF4984310860E06BB0F5801F01D1F8
:100800004FF00108E06B08B94FF00109206800F4CF
:100810008010B0F5801F13D1E5488430006820F4C3
:100820004000216C0843E24984310860206CB0F537
:10083000800F01D14FF00108206C08B94FF0010979
:10084000206800F08070B0F1807F01D14FF0010886
:10085000207800F02000202870D100BFD448383024
:10086000006840F08050D24938310860084600687E
:1008700000F08050009000BF00BFCE48006840F4F8
:100880008070CC490860FFF78BFE064607E0FFF753
:1008900087FE801B642802D90320BDE8F883C54881
:1008A000006800F480700028F1D0C148683000680A
:1008B00000F4407585B3208E00F44070A8422BD020
:1008C000BB486830006820F44075B948683000685B
:1008D00040F48030B649683108600846006820F46A
:1008E0008030086008460560006800F0010098B19B
:1008F000FFF756FE064608E0FFF752FE801B41F266
:100900008831884201D90320C7E7A94868300068C8
:10091000C0F340000028EFD000BF208E00F44070EC
:10092000B0F5407F0BD1A248006820F4F810A24A2D
:10093000216B114008439E49086006E010E09C4886
:10094000006820F4F8109A490860994868300068F7
:10095000218EC1F30B01084395496831086000BF3F
:10096000207800F01000102810D100BF904884308B
:10097000006820F080708E49843108600846006865
:10098000A16B08438A498431086000BF208800F4C5
:100990008040B0F5804F09D185488830006820F448
:1009A0004030616E0843824988310860208800F435
:1009B0000040B0F5004F09D17D488830006820F430
:1009C0004020A16E08437A4988310860206800F40D
:1009D0008030B0F5803F09D175488830006820F438
:1009E0004010E16E0843724988310860206800F4C5
:1009F0000030B0F5003F09D16D488830006820F420
:100A00004000216F08436A4988310860207800F06F
:100A10004000402809D166488830006820F0030073
:100A2000616C0843624988310860207800F08000DA
:100A3000802809D15E488830006820F00C00A16C45
:100A400008435B4988310860208800F48070B0F565
:100A5000807F09D156488830006820F03000E16C72
:100A60000843534988310860208800F40070B0F5CD
:100A7000007F09D14E488830006820F0C000216D09
:100A800008434B4988310860208800F48060B0F545
:100A9000806F09D146488830006820F44070616D4D
:100AA0000843434988310860208800F40060B0F5AD
:100AB000006F09D13E488830006820F44060A16D85
:100AC00008433B4988310860208800F48050B0F525
:100AD000805F09D136488830006820F44050E16DCD
:100AE0000843334988310860208800F40050B0F58D
:100AF000005F09D12E488830006820F44040216E04
:100B000008432B4988310860206800F48000B0F564
:100B1000800F09D126488830006820F08060A16FDE
:100B20000843234988310860206800F40010B0F5BC
:100B3000001F0FD11E488830006820F00060E16F70
:100B400008431B4988310860E06FB0F1006F01D1A4
:100B50004FF00109207800F00800082801D14FF07B
:100B60000109206800F48020B0F5802F09D11048D9
:100B70008830006820F04070616F08430C4988316C
:100B80000860206800F40000B0F5000F0AD10848A2
:100B90008830006820F08050D4F880100843044961
:100BA00088310860206800F08060B0F1806F05E057
:100BB0000838024000700040FFFCFF0F08D1CC480D
:100BC000006820F00050D4F884100843C849086039
:100BD000206800F00060B0F1006F0AD1C448001F27
:100BE000006820F00070D4F888100843C049091F3D
:100BF0000860206800F08050B0F1805F0AD1BC48E6
:100C0000001F006820F08060D4F88C100843B849B9
:100C1000091F0860B8F1010F03D02068B0F1007F10
:100C20007ED1B3489038006820F08060B049903998
:100C30000860FFF7B5FC064606E0FFF7B1FC801B35
:100C4000642801D9032028E6A94890380068C0F339
:100C5000C0600028F1D1207800F00100B8B1606BCD
:100C6000A8B9A3480C380068C0F30145A0480C3867
:100C70000068C0F303676068800140EA054040EA0D
:100C80000761207A41EA007099490C3908602068B0
:100C900000F40020B0F5002F03D1E06BB0F5801F09
:100CA00009D0206800F48010B0F5801F24D1206C9A
:100CB000B0F5800F20D18E480C380068C0F3014594
:100CC0008B480C380068C0F302776068800140EA06
:100CD0000541207B41EA006040EA077084490C39F5
:100CE00008608348001F006820F01F00616A491EE9
:100CF00008437F49091F0860206800F08070B0F148
:100D0000807F17D17A480C380068C0F303657848B3
:100D10000C380068C0F3027760688101208A00E027
:100D200036E041EA004040EA056040EA0770704959
:100D30000C390860206800F00070B0F1007F0DD120
:100D400060688101208A41EA0041207B41EA00611C
:100D5000207A41EA007066490C390860644890388E
:100D6000006840F08060624990390860FFF718FC25
:100D7000064606E0FFF714FC801B642801D9032017
:100D80008BE55B4890380068C0F3C0600028F1D064
:100D9000B9F1010F7ED156489038006820F080509C
:100DA000534990390860FFF7FBFB064606E0FFF762
:100DB000F7FB801B642801D903206EE54C4890386E
:100DC0000068C0F340700028F1D1206800F40020D2
:100DD000B0F5002F01D1E06B38B1206800F480102D
:100DE000B0F5801F22D1206C00BB41480838006854
:100DF000C0F301453E4808380068C0F302776069D7
:100E0000800140EA0541207E41EA006040EA077027
:100E1000374908390860081D006820F4F851A06AB5
:100E2000401E41EA00203249091F0860206800F492
:100E30000010B0F5001F19D1E06FB0F1006F15D1AF
:100E40002B4808380068C0F3036529480838006853
:100E5000C0F3027760698101208C41EA004040EADA
:100E6000056040EA0770224908390860207800F0E0
:100E70000800082820D11E4808380068C0F3036520
:100E80001B4808380068C0F301476069800140EAE8
:100E9000074000E02AE040EA0561207F41EA007057
:100EA000134908390860081D006820F44030E16AE1
:100EB00008430F49091F08600D489038006840F04A
:100EC00080500B4990390860FFF76AFB064606E040
:100ED000FFF766FB801B642801D90320DDE404488A
:100EE00090380068C0F340700028F1D00020D4E4AE
:100EF0009038024070B504460D4600260CB901201A
:100F000070BD5C48006800F00F00A8420ED259483E
:100F1000006820F00F002843564908600846006822
:100F200000F00F00A84201D00120E9E7207800F08E
:100F3000020002281DD1207800F00400042805D109
:100F40004D48006840F4E0504B490860207800F0BC
:100F50000800082805D14848006840F46040464928
:100F600008604548006820F0F000A1680843424945
:100F70000860207800F0010090B36068012807D174
:100F80003D4808380068C0F34040A0B90120B7E7E9
:100F90006068022807D1384808380068C0F340600C
:100FA00048B90120ACE7344808380068C0F3400075
:100FB00008B90120A4E73048006820F00300616808
:100FC00008432D490860FFF7EBFA064609E0FFF7F2
:100FD000E7FA801B41F28831884202D903208FE76B
:100FE00007E02548006800F00C006168B0EB810F55
:100FF000EDD12048006800F00F00A8420ED91D482E
:10100000006820F00F0028431A490860084600686D
:1010100000F00F00A84201D0012071E7207800F015
:101020000400042807D11448006820F4E050E16867
:10103000084311490860207800F00800082808D10A
:101040000D48006820F46040216940EAC1000A4967
:10105000086000F03DF808490968C1F30311074A28
:10106000515CC840064908600020FFF7B7FA00202D
:1010700046E70000003C0240083802400420000817
:101080000C00002001480068704700000C000020A0
:1010900000B5FFF7F7FF04490968C1F38221034A4D
:1010A000515CC84000BD0000083802401420000810
:1010B00000B5FFF7E7FF04490968C1F34231034A6D
:1010C000515CC84000BD00000838024014200008F0
:1010D0002DE9F047002400250026A1462548006898
:1010E00000F00C0020B1042805D008283AD105E012
:1010F000DFF8849039E0DFF8849036E01D48001F67
:10110000006800F03F041B48001F006800F48000E6
:1011100078B11A481749091F0968C1F38811A0FB63
:1011200001700146224600233846FFF781F8054644
:101130000EE011480F49091F0968C1F38811A0FB8F
:1011400001700146224600233846FFF771F8054634
:101150000848001F0068C0F30140401C4600B5FB72
:10116000F6F902E0DFF8109000BF00BF4846BDE886
:10117000F0870000083802400024F40040787D0128
:10118000F8B5044600260CB90120F8BD207800F01F
:101190000100002871D0F848006800F00C00042815
:1011A0000DD0F548006800F00C00082813D1F24873
:1011B000001F006800F48000B0F5800F0BD1EE48EE
:1011C00008380068C0F34040002869D060680028F3
:1011D00066D10120D9E700BF6068B0F5803F08D133
:1011E000E5480838006840F48030E3490839086071
:1011F0002EE0606868B9E0480838006820F4803064
:10120000DD49083908600846006820F4802008603D
:101210001EE06068B0F5A02F0DD1D74808380068EF
:1012200040F48020D449083908600846006840F43A
:10123000803008600CE0D0480838006820F4803026
:10124000CD49083908600846006820F4802008600D
:1012500000BF606890B1FFF7A3F9054606E0FFF70D
:101260009FF9401B642801D903208EE7C248083843
:101270000068C0F340400028F1D011E0FFF790F97A
:10128000054606E0FFF78CF9401B642801D90320CE
:101290007BE7B94808380068C0F340400028F1D126
:1012A000207800F00200022869D1B348006800F0FD
:1012B0000C0058B1B048006800F00C0008281CD1A0
:1012C000AD48001F006800F48000B0B9AA48083893
:1012D0000068C0F3400020B1E068012801D001207F
:1012E00053E7A5480838006820F0F800216940EA73
:1012F000C100A1490839086041E0E06828B39E4870
:101300000838006840F001009B4908390860FFF781
:1013100047F9054606E0FFF743F9401B022801D9CB
:10132000032032E7944808380068C0F340000028E2
:10133000F1D091480838006820F0F800216940EAAF
:10134000C1008D490839086019E08B4808380068E9
:1013500020F00100884908390860FFF721F90546A7
:1013600006E0FFF71DF9401B022801D903200CE716
:10137000814808380068C0F340000028F1D1207887
:1013800000F00800082836D16069D0B17A486C3086
:10139000006840F0010078496C310860FFF700F9FF
:1013A000054606E0FFF7FCF8401B022801D90320A0
:1013B000EBE671486C300068C0F340000028F1D0C3
:1013C00019E06D486C30006820F001006A496C310A
:1013D0000860FFF7E5F8054606E0FFF7E1F8401B77
:1013E000022801D90320D0E663486C300068C0F3BE
:1013F00040000028F1D1207800F00400042874D1C6
:101400005D483830006800F0805080B900BF5A480D
:101410003830006840F0805057493831086008463D
:10142000006800F08050009000BF00BF01265348C4
:10143000006800F48070B0B95048006840F48070D3
:101440004E490860FFF7ACF8054606E0FFF7A8F83C
:10145000401B642801D9032097E64848006800F43F
:1014600080700028F2D000BFA068012808D142484F
:101470006830006840F001003F49683108602DE0A5
:10148000A06868B93C486830006820F001003A491B
:10149000683108600846006820F0040008601DE01C
:1014A000A06805280DD134486830006840F0040079
:1014B0003149683108600846006840F00100086062
:1014C0000CE02D486830006820F001002A4968319E
:1014D00008600846006820F00400086000BFA068AB
:1014E000A8B1FFF75DF8054609E02EE0FFF758F8D0
:1014F000401B41F28831884201D9032045E61E484D
:1015000068300068C0F340000028EFD013E0FFF718
:1015100047F8054608E0FFF743F8401B41F28831E1
:10152000884201D9032030E6134868300068C0F3D0
:1015300040000028EFD1012E07D10F483830006855
:1015400020F080500C4938310860A069F0B30A4897
:10155000006800F00C00082868D0A06902284DD16E
:1015600005480838006820F0807003490839086091
:10157000FFF716F805460AE0083802400070004000
:10158000FFF70EF8401B022801D90320FDE529488A
:101590000068C0F340600028F2D1D4E90701084395
:1015A000616A40EA81110122A06AC2EB500041EA5F
:1015B00000412C20005D41EA00613020005D41EADD
:1015C00000701C49091D0860081F00E030E0006839
:1015D00040F08070091F0860FEF7E2FF054606E054
:1015E000FEF7DEFF401B022801D90320CDE511489C
:1015F0000068C0F340600028F2D019E00D48006890
:1016000020F080700B490860FEF7CAFF054606E02F
:10161000FEF7C6FF401B022801D90320B5E50548A7
:101620000068C0F340600028F2D101E00120ACE581
:101630000020AAE50038024070B504462546681E21
:10164000B0F1807F01D301200FE0681E4FF0E02150
:1016500048610F214FF0FF3000F07EFC00204FF07A
:10166000E021886107200861002070BD10B50446A4
:101670000CB9012010BDA06900B100E000BF606F8F
:1016800028B9002084F87000204600F029F82420B2
:1016900060672068006820F001002168086020462B
:1016A00000F04AFA012800D1E4E7606A10B1204650
:1016B00000F0A2F92068406820F49040216848605A
:1016C0002068806820F02A0021688860206800680F
:1016D00040F0010021680860204600F009FAC9E7DF
:1016E00010B586B00446142101A8FEF7EBFD194998
:1016F000206888422CD100BF1748006840F4802041
:10170000154908600846006800F48020009000BF7A
:1017100000BF00BF10481038006840F008000E49B4
:10172000103908600846006800F00800009000BF0B
:1017300000BF4FF4407001900220029000200390FF
:10174000032004900720059001A90448FEF716FE27
:1017500006B010BD0048004040380240000C024076
:101760002DE9F84F04460E4617469946606F20282B
:101770005CD106B117B90120BDE8F88F00BF94F81D
:101780007000012801D10220F6E7012084F87000E2
:1017900000BF0020E06721206067FEF701FF82465E
:1017A000A4F85070A4F85270A068B0F5805F04D11E
:1017B000206910B90025B04602E035464FF0000818
:1017C0001DE05346002280212046CDF8009000F015
:1017D00085FB08B10320CFE745B9B8F80000C0F396
:1017E00008002168886208F1020803E0287821686F
:1017F00088626D1CB4F85200401EA4F85200B4F880
:1018000052000028DDD15346002240212046CDF869
:10181000009000F063FB08B10320ADE72020606773
:1018200000BF002084F8700000BFA5E70220A3E7F6
:1018300000BFFEE700B587B0142102A8FEF742FD05
:1018400000BF1648006840F00200144908600846CE
:10185000006800F00200019000BF00BF00BF084612
:10186000006840F0080008600846006800F00800C2
:10187000019000BF00BF002281210948FEF78AFEC7
:10188000812002900120039004900020059002A97D
:101890000348FEF773FD07B000BD0000303802407A
:1018A0000004024010B50D480D4908604FF4E130C6
:1018B000486000210A488160C16001610C214161DA
:1018C00000218161C161016200200549486208462A
:1018D000FFF7CCFE08B1FEF73CFD10BD004800400C
:1018E0001000002000BFFEE770477047704710B53A
:1018F000FEF75CFE10BD000030B5B7B0342124A85F
:10190000FEF7E0FC142131A8FEF7DCFC90216846CC
:10191000FEF7D8FC1D48016841F080510160006865
:1019200000F0805036901A48016841F4404101604F
:10193000006800250DF1B00C022424940822D8235D
:10194000CDE92A4500F44040369010218CE81C0077
:1019500001202F94CDE9270124A8FFF711FCFEF701
:10196000D5FEE2024FF4A0510F20CDE9341231AA86
:10197000072182E8310031A8FFF7BCFAE001139596
:1019800000906846FEF70AFF37B030BD403802408D
:10199000007000401448006840F47000124908606C
:1019A0001248006840F001001049086000200F490B
:1019B000083108600D4800680D4908400B4908606F
:1019C0000C48091D0860081F006820F48020091FCA
:1019D0000860002005490C3108604FF000600249A2
:1019E000803908607047000088ED00E00038024050
:1019F000FFFFF6FE1030002490F8241001F00101E2
:101A000039B10168496821F40031826A11430268E2
:101A1000516090F8241001F00201022907D10168F9
:101A2000496821F48031C26A11430268516090F81C
:101A3000241001F00401042907D10168496821F448
:101A40008021026B11430268516090F8241001F06C
:101A50000801082907D10168496821F40041426B57
:101A600011430268516090F8241001F01001102910
:101A700007D10168896821F48051826B11430268A3
:101A8000916090F8241001F02001202907D101680D
:101A9000896821F40051C26B11430268916090F88B
:101AA000241001F04001402913D10168496821F454
:101AB0008011026C114302685160016CB1F5801F06
:101AC00007D10168496821F4C001426C11430268E2
:101AD000516090F8241001F08001802907D101683D
:101AE000496821F40021826C1143026851607047FB
:101AF00038B504460020E067FEF752FD0546206831
:101B0000006800F0080008280CD16FF07E402B46DA
:101B100000224FF400110090204600F0DFF908B1D8
:101B2000032038BD20206067A06700BF002084F834
:101B3000700000BF00BFF4E72DE9F047044600261F
:101B4000B1462169A068084361690843E16940EA38
:101B5000010720680068D5490840384321680860BB
:101B60002068406820F44050E168084321684860DC
:101B7000A769206A07432068806820F430603843F2
:101B80002168886000BFCA492068884216D1C948C8
:101B9000006800F0030030B1012808D0022804D00A
:101BA000032808D105E0012507E0022505E004250A
:101BB00003E0082501E0102500BFC9E0BE49206808
:101BC000884216D1BB48006800F00C0030B10428F0
:101BD00008D0082804D00C2808D105E0002507E02B
:101BE000022505E0042503E0082501E0102500BFDB
:101BF000AEE0B2492068884216D1AE48006800F0D5
:101C0000300030B1102808D0202804D0302808D166
:101C100005E0002507E0022505E0042503E008258E
:101C200001E0102500BF93E0A5492068884216D145
:101C3000A048006800F0C00030B1402808D08028DB
:101C400004D0C02808D105E0002507E0022505E002
:101C5000042503E0082501E0102500BF78E099493C
:101C60002068884219D19348006800F4407048B158
:101C7000B0F5807F0AD0B0F5007F05D0B0F5407F89
:101C800008D105E0002507E0022505E0042503E072
:101C9000082501E0102500BF5AE08B4920688842E2
:101CA00019D18448006800F4406048B1B0F5806FF5
:101CB0000AD0B0F5006F05D0B0F5406F08D105E04F
:101CC000012507E0022505E0042503E0082501E0E1
:101CD000102500BF3CE07D492068884219D1754835
:101CE000006800F4405048B1B0F5805F0AD0B0F50C
:101CF000005F05D0B0F5405F08D105E0002507E0A2
:101D0000022505E0042503E0082501E0102500BFB9
:101D10001EE06F492068884219D16648006800F4C7
:101D2000404048B1B0F5804F0AD0B0F5004F05D023
:101D3000B0F5404F08D105E0002507E0022505E099
:101D4000042503E0082501E0102500BF00E0102570
:101D500000BFE069B0F5004F57D1042D28D005DC55
:101D60004DB1012D11D0022D36D118E0082D29D00A
:101D7000102D31D131E0FFF78BF94000616800EBA5
:101D80005100B0FBF1F086B22AE0FFF791F9400074
:101D9000616800EB5100B0FBF1F086B220E04D49E4
:101DA000606801EB50006168B0FBF1F086B217E0AB
:101DB000FFF78EF94000616800EB5100B0FBF1F0D5
:101DC00086B20DE04FF48031606801EB500061682D
:101DD000B0FBF1F086B203E000BF4FF0010900BF95
:101DE00000BF102E0ED3B6F5803F0BD24FF6F07029
:101DF00006EA0008C6F3420048EA00082068C0F876
:101E00000C804DE04FF001094AE0042D26D005DC9E
:101E10004DB1012D10D0022D33D116E0082D26D062
:101E2000102D2ED12EE0FFF733F9616800EB510041
:101E3000B0FBF1F086B228E0FFF73AF9616800EBF9
:101E40005100B0FBF1F086B21FE02349606801EB5E
:101E500050006168B0FBF1F086B216E0FFF738F988
:101E6000616800EB5100B0FBF1F086B20DE04FF479
:101E70000041606801EB50006168B0FBF1F086B290
:101E800003E000BF4FF0010900BF00BF102E05D3D3
:101E9000B6F5803F02D22068C66001E04FF001092C
:101EA0000020206660664846BDE8F087F369FFEFD2
:101EB00000100140903802400044004000480040BB
:101EC000004C0040005000400014014000780040E9
:101ED000007C00400048E8010024F4002DE9F041B6
:101EE00004460D4617469846069E1FE0701CE8B152
:101EF000FEF756FBA0EB0800B04200D8B6B9206848
:101F0000006820F4D070216808602068806820F0A4
:101F100001002168886020206067A06700BF002062
:101F200084F8700000BF0320BDE8F0812068C0691C
:101F30002840A84201D1012000E00020B842D5D0BD
:101F40000020F1E700BFFEE702480068C0F302206E
:101F5000704700000CED00E010B5002804DB0A0714
:101F6000130E054A135406E00A07140E034A00F044
:101F70000F031B1FD45410BD00E400E018ED00E077
:101F800002E008C8121F08C1002AFAD17047704742
:101F9000002001E001C1121F002AFBD170470000A0
:101FA00086B0FEF70FFBFFF7A7FCFFF743FCFFF738
:101FB00079FC0E4C4FF4FA7642F210756846142202
:101FC0000BA1FEF766F92068C169C9434906FBD435
:101FD0006846FEF782F982B204482B466946FFF74D
:101FE000BFFB3046FEF7B6F9E8E70000100000201E
:101FF00048656C6C6F2C20576F726C6421210A0D40
:1020000000000000000000000000000001020304C6
:102010000607080900000000010203043C20000834
:102020000000002010000000801F00084C20000865
:102030001000002080040000901F00080000000035
:0C20400010000000010000000024F4006B
:04000005080001F9F5
:00000001FF
