:020000040800F2
:10000000E80400200D0200086F19000823180008FA
:100010006D190008190300081D22000800000000E7
:10002000000000000000000000000000731900083C
:100030001B03000800000000711900087519000872
:1000400027020008270200082702000827020008EC
:1000500027020008270200082702000827020008DC
:1000600027020008270200082702000827020008CC
:1000700027020008270200082702000827020008BC
:1000800027020008270200082702000827020008AC
:10009000270200082702000827020008270200089C
:1000A000270200082702000827020008270200088C
:1000B000270200082702000827020008270200087C
:1000C000270200082702000827020008270200086C
:1000D0002702000827020008270200081122000852
:1000E000270200082702000827020008270200084C
:1000F000270200082702000827020008270200083C
:10010000270200082702000827020008270200082B
:10011000270200082702000827020008270200081B
:10012000270200082702000827020008270200080B
:1001300027020008270200082702000827020008FB
:1001400027020008270200082702000827020008EB
:1001500027020008270200082702000827020008DB
:1001600027020008270200082702000827020008CB
:1001700027020008270200082702000800000000EC
:1001800027020008270200082702000827020008AB
:10019000270200082702000827020008270200089B
:1001A000270200082702000827020008270200088B
:1001B000270200082702000827020008270200087B
:1001C000270200082702000800000000270200089C
:1001D000270200082702000827020008270200085B
:1001E000270200082702000827020008270200084B
:1001F0002702000827020008DFF80CD000F07AF888
:100200000048004761220008E804002006488047B3
:1002100006480047FEE7FEE7FEE7FEE7FEE7FEE7EB
:10022000FEE7FEE7FEE7FEE7151A0008F901000801
:100230002DE9F05F0546002092469B46884606461B
:10024000814640241BE0284641464746224600F0AE
:1002500041F853465A46C01A914110D311461846E8
:10026000224600F028F82D1A67EB01084F46224677
:100270000120002100F01FF817EB00094E41201E5D
:10028000A4F10104DFDC484631462A464346BDE876
:10029000F09FD2B201E000F8012B491EFBD270475B
:1002A0000022F6E710B513460A4604461946FFF742
:1002B000F0FF204610BD202A04DB203A00FA02F1AC
:1002C000002070479140C2F1200320FA03F3194344
:1002D00090407047202A04DB203A21FA02F00021E6
:1002E000704721FA02F3D040C2F120029140084346
:1002F00019467047064C074D06E0E06840F00103E0
:1003000094E8070098471034AC42F6D3FFF778FF23
:100310002C2400084C240008FEE77047704790F832
:100320003510022903D08021416501207047052145
:1003300080F835100068016821F00101016000209B
:10034000704700002DE9F84FDFF89CE100224FF0E4
:1003500001084FF0030B4FF00F0A00BF0B6808FABB
:1003600002F42340A34271D14D68022D01D0122D19
:100370000FD1D5080E69570700EB8505A9462D6AF0
:10038000FF0E0AFA07FCBE4025EA0C052E43C9F809
:1003900020600F79550006680BFA05FC07F003078B
:1003A00026EA0C06AF40374307604E68012E05D0A1
:1003B000022E03D0112E01D0122E0ED18668CF68E6
:1003C00026EA0C06AF403743876046680F79A6439C
:1003D000C7F30017974037434760C4688E6824EA24
:1003E0000C04AE402643C6604C68E40075D53F4C13
:1003F000256845F480452560246822F003069507AA
:1004000004F4804400943A4C2D0F2644D6F8084852
:10041000DFF8E0C00AFA05F7604524EA070401D1D5
:1004200000272EE0344FB84201D1012729E0334F95
:10043000B84201D1022724E0314FB84201D103274D
:100440001FE0304FB84202D104271AE045E02E4F9A
:10045000B84201D1052714E02C4FB84201D106273C
:100460000FE02B4FB84201D107270AE0294FB842CD
:1004700001D1082705E0284FB84201D1092700E043
:100480000A27AF4027437546C6F808784E68DEF85D
:100490000040F60324EA030400D51C43124E2C60EE
:1004A000361D4D683468AD0324EA030400D51C43AF
:1004B0000D4F346008374D683C68ED0224EA0304B0
:1004C00000D51C43084D3C600C354E682C68B602C4
:1004D00024EA030400D51C432C60521C102AFFF4AC
:1004E0003DAFBDE8F88F0000003C014044380240B9
:1004F00000300140000002400004024000080240B9
:10050000000C02400010024000140240001802409B
:10051000001C024000200240002402400148806884
:1005200070470000180000200248816802781144DA
:100530008160704718000020032010B500F070F8AB
:10054000002000F005F800F023F8002010BD0000A6
:1005500070B50D4D04464FF47A700C4A2978126834
:10056000B0FBF1F0B2FBF0F000F0C6FD48B9102C82
:1005700007D200222146501E00F032F800206C60A5
:1005800070BD012070BD0000180000202400002074
:100590000B4882B0016841F080510160006800F0B2
:1005A000805000900648001D016841F480410160C0
:1005B000006800F480400090052002B000F030B8E0
:1005C00040380240002809DB410900F01F02890081
:1005D000012001F1E0219040C1F8000170470000C6
:1005E0000E4BF0B41B680D46C3F30223C3F107069C
:1005F000042E00D90426191D072901D2002300E08A
:10060000DB1E012404FA06F19C40491E2940641EA9
:10061000994014402143F0BC01F001BE0CED00E014
:10062000064900F0070210B54FF6FF040868044BB6
:10063000204040EA02201843086010BD0CED00E0A5
:100640000000FA051848F8B5016841F080510160D2
:100650000068164C00F080500090206840F4803014
:100660002060FFF75BFF4FF47A76054605E000BF98
:10067000FFF754FF401BB0420FD86068C003F7D5A6
:10068000206840F400302060FFF748FF054606E090
:10069000FFF744FF401BB04201D90320F8BD60685A
:1006A0008003F5D50020F8BD4038024000700040BE
:1006B0002DE9F84F04460078DFF824944FF0000647
:1006C0003746C0070ED0D9F8001021F40001C9F850
:1006D0000010D9F80010626B1143C9F80010606B6C
:1006E00000B90126FE4D2068843500030ED5E16B6C
:1006F000286820F4401008432860E06BB0F5801FA4
:1007000001D010B102E0012600E0012720684FF47B
:10071000800BC0020CD5216C286820F440000843EF
:100720002860206C584501D1012601E000B901275D
:100730002068C10100D50126800666D5E84838301A
:10074000016841F0805101600068DFF898A300F073
:1007500080500090DAF8001041F48071CAF800105F
:10076000FFF7DCFE804605E0FFF7D8FEA0EB0800AF
:1007700064287DD8DAF80000C005F5D5DFF860837D
:1007800008F16808D8F8000010F440702AD0218ED3
:1007900001F44071814225D0D8F80010D8F800202B
:1007A00021F4407142F48032C8F80020D8F80020CB
:1007B00022F48032C8F80020C8F80010D8F80000F1
:1007C000C0070FD0FFF7AAFE824607E0FFF7A6FE9C
:1007D000A0EB0A0141F288308142CAD8D8F8000063
:1007E0008007F3D5206BC0F3012103297ED0D9F80F
:1007F000001021F4F811C9F80010228ED8F800106A
:10080000C2F30B021143C8F800102078C00607D5C8
:10081000286820F0807028602868A16B0843286051
:100820002188AF488830490405D5626E016821F4FB
:100830004031114301602188090405D5A26E016889
:1008400021F44021114301602168C90305D5E26EFE
:10085000016821F44011114301602168890305D525
:10086000226F016821F4400111430160217800E00A
:1008700034E1490605D5626C016821F0030111439A
:1008800001602178090605D5A26C016821F00C01F0
:10089000114301602188C90505D5E26C016821F08A
:1008A0003001114301602188890505D5226D016859
:1008B00021F0C001114301602188490505D5626D11
:1008C000016821F44071114301602188090505D5B3
:1008D000A26D016821F44061114301602188C904BF
:1008E00007D5E26D016821F4405100E05FE011435B
:1008F00001602188890405D5226E016821F44041F8
:10090000114301602168490205D5A26F016821F0F9
:1009100080611143016021684FF0006A890209D5A6
:10092000E26F016821F0006111430160E16F514500
:1009300000D1012721680A0700D50127490305D501
:10094000626F016821F04071114301602168090262
:1009500006D5D4F88020016821F080511143016050
:100960002168490106D5D4F88420016821F000519E
:10097000114301602068000106D5D4F8881028686A
:1009800020F00070084328602068C00006D5D4F825
:100990008C10286820F0806008432860DFF84891B8
:1009A000012E0ED02068B0F1007F0AD08FE04F4AB0
:1009B000D9F80030104023F4F8120243C9F800209F
:1009C0001BE7D9F800004E4620F08060C9F800000F
:1009D000FFF7A4FD804605E0FFF7A0FDA0EB0800AF
:1009E00064287BD830680001F6D421783C487C30FC
:1009F000C90712D0616B81B9237A62680168D0F8A7
:100A000000C09201C1F3014142EA0142CCF303610B
:100A100042EA016141EA0371016021680A0303D5DA
:100A2000E26BB2F5801F04D0C9021AD5216C59457A
:100A300017D16368016894F80CC002689B01C1F388
:100A4000014143EA0141C2F3027241EA0C6141EA09
:100A5000027101602968626A21F01F01521E114370
:100A600029602168C90110D5238A62680168D0F81D
:100A700000C09201C1F3036142EA034242EA01620B
:100A8000CCF3027142EA01710160216889010CD541
:100A90006168228A237B94F808C0890141EA0241F7
:100AA00041EA036141EA0C7101603168B04641F0EE
:100AB00080613160FFF732FD064604E0FFF72EFD4E
:100AC000801B64280AD8D8F800000001F6D5E7B3E7
:100AD000D9F800004E4620F0805009E07BE000008D
:100AE000083802400070004000380240FFFCFF0F51
:100AF000C9F80000FFF712FD074604E0FFF70EFDFE
:100B0000C01B642867D83068C0438000F6D52168D0
:100B100035480A0301D5E26B1AB1C9021DD5216C13
:100B2000D9B963690168277E02689B01C1F301415D
:100B300043EA0143C2F3027143EA076242EA0171E8
:100B4000016029686FF0FF0300E04BE0A26A21F426
:100B5000F85103EB0222114329602168890212D562
:100B6000E16F51450FD1238C6269016807689201DA
:100B7000C1F3036142EA034242EA0162C7F3027130
:100B800042EA017101602178090716D5616902689E
:100B9000D0F800C08B01277FC2F30362CCF3014180
:100BA00043EA014141EA026141EA077101602868B4
:100BB000E16A20F4403008432860306840F08050FB
:100BC0003060FFF7ABFC044608E000BFFFF7A6FC6F
:100BD000001B642802D90320BDE8F88F3068C043A9
:100BE0008000F3D40020F7E7883802402DE9F04771
:100BF00005000F4663D0444E306800F00F00B84245
:100C000009D2306820F00F0038433060306800F0BF
:100C10000F00B84253D128683C4C810712D54007D9
:100C200003D5206840F4E05020602878000703D501
:100C3000206840F460402060A968206820F0F0003F
:100C4000084320602878C0072AD0304968680839EE
:100C5000012810D00968022810D0890700292EDA4F
:100C6000216821F0030101432160FFF757FC804612
:100C700041F288390DE009688903EFE78901EDE762
:100C8000FFF74CFCA0EB0801494502D90320BDE861
:100C9000F0876868216801F00C01B1EB800FEFD19B
:100CA000306800F00F00B8420BD9306820F00F0018
:100CB00038433060306800F00F00B84201D00120A6
:100CC000E5E72878400705D5E968206820F4E0507A
:100CD000084320602878000706D52869216821F498
:100CE000604141EAC000206000F036F82168084AFF
:100CF000C1F30311515CC840064908600020FFF7AA
:100D000027FC0020C3E70000003C024008380240F6
:100D100014240008240000200449054809680068DC
:100D2000044AC1F38221515CC84070470838024030
:100D300024000020242400080449054809680068AC
:100D4000044AC1F34231515CC84070470838024040
:100D50002400002024240008154910B5154809680E
:100D600011F00C0213D01449042A0FD0082A0ED116
:100D70000F4C241F2268236802F03F025B0207D554
:100D80002068C0F38810A0FB010106E0084610BDF2
:100D90002168C1F38811A1FB00010023FFF748FA85
:100DA0002168C1F30141491C4900B0FBF1F010BDBD
:100DB000083802400024F40040787D012DE9F84F06
:100DC00005004FF000076ED02878DFF82093A9F1D6
:100DD000040AC007AAF104044CD0D9F80010484610
:100DE000C1F38101012908D00068C0F38100022805
:100DF0000AD1DAF80000400206D52068800339D510
:100E000068680028DFD035E06868B0F5803F0BD017
:100E100010B1B0F5A02F11D0206820F480302060F0
:100E2000206820F4802002E0206840F480302060B8
:100E3000686890B1FFF772FB06460AE0206840F44C
:100E400080202060F0E700BFFFF768FB801B64286C
:100E500072D820688003F7D50CE0FFF75FFB0646E9
:100E600005E000BFFFF75AFB801B6428F0D820681C
:100E70008003F7D42878800742D5D9F80010484677
:100E800011F00C0F08D00068C0F3810002280BD1CC
:100E9000DAF80000400207D42068800718D5E86817
:100EA000012800D114E01EE1E8680028206817D06E
:100EB00040F001002060FFF731FB064605E000BF6F
:100EC000FFF72CFB801B0228C2D820688007F7D5CB
:100ED0002869216821F0F80141EAC00020600FE094
:100EE00020F001002060FFF719FB064605E000BF77
:100EF000FFF714FB801B02281ED820688007F7D458
:100F00002878000729D5794869696C30002980461E
:100F1000016812D041F001010160FFF7FFFA0646B7
:100F200005E000BFFFF7FAFA801B022804D8D8F8C2
:100F300000008007F6D510E089E021F00101016092
:100F4000FFF7ECFA064604E0FFF7E8FA801B0228F8
:100F50007DD8D8F800008007F6D4287840076BD5F4
:100F6000DFF8888108F13808D8F80000C0000BD4F9
:100F7000D8F8001041F08051C8F80010D8F80000EF
:100F8000012700F08050009059480168C90512D42B
:100F90000168834641F480710160FFF7BFFA06469D
:100FA00005E000BFFFF7BAFA801B64284FD8DBF8D2
:100FB0000000C005F6D54D4EA868683601280AD055
:100FC00008B1052811D0306820F001003060306889
:100FD00020F0040002E0306840F001003060A868B2
:100FE000A0B1FFF79BFA83460CE0306840F00400A4
:100FF0003060F0E7FFF792FAA0EB0B0141F2883086
:10100000814268D830688007F4D50EE0FFF786FA91
:10101000834607E0FFF782FAA0EB0B0141F288302C
:10102000814258D830688007F4D42FB1D8F8001026
:1010300021F08051C8F80010A869E0B3D9F8001079
:10104000C1F3810102294ED00228206800E042E06D
:1010500020F08070206003D0FFF760FA05463DE085
:10106000FFF75CFA064604E0FFF758FA801B0228F7
:1010700031D820688001F7D4D5E90921DFF874C0A0
:10108000D5E9070695F830304F0895F82C10304315
:101090000CEB074545EA8212104340EA016040EA42
:1010A0000370CAF80000206840F080702060FFF7ED
:1010B00035FA054605E014E0FFF730FA401B022838
:1010C00009D820688001F7D50BE000BFFFF726FAAA
:1010D000401B022802D90320BDE8F88F2068800158
:1010E000F4D40020F8E70120F6E7000008380240B9
:1010F000007000400000FFFF401EB0F1807F10B57F
:1011000001D3012010BD4FF0E02460610F21601772
:1011100001F085F80020A0610721216110BD0000C9
:1011200070B590F83C20012A24D0134C012580F89A
:101130003C50022280F83D2002685368A242966823
:1011400002D00E4CA24203D14C6823F47003234317
:101150000C6823F0700389681C435460002326F058
:10116000800602683143916080F83D5080F83C3041
:10117000184670BD022070BD00000140000401400F
:1011800010B5040003D094F83D0010B107E0012031
:1011900010BD002084F83C00204600F00DF802202D
:1011A00084F83D002068211D00F05EFC012084F8D9
:1011B0003D00002010BD000008B50068B0F1804F70
:1011C00008D10548016841F001010160006800F0A4
:1011D0000100009008BD00004038024070B5044690
:1011E00090F83C00012817D0324B012584F83C5080
:1011F000022084F83D0022689068184020F47F4067
:1012000090600868502830D00DDC20284DD005DCD7
:1012100098B310283BD148E0022070BD302844D05C
:10122000402834D139E0602828D0702806D0B0F5A5
:10123000805F2CD0B0F5005F29D10AE04A682068B1
:10124000D1E9021300F083FC2068816841F0770146
:1012500009E04A682068D1E9021300F078FC2068B0
:10126000816841F48041816011E0CA684968206862
:1012700000F0B4FD2068502107E016E0CA68496814
:10128000206800F0BCFD2068602100F069FC0020AF
:1012900084F83D5084F83C0070BDCA6849682068F5
:1012A00000F09CFD20684021EFE7226801461046CF
:1012B000EBE7000088FFFEFFF0B587B0044614217D
:1012C0006846FEF7EDFF2068B0F1804F22D112484A
:1012D000016841F001010160016801F0010105911F
:1012E000016841F00201016000680224002569469E
:1012F00000F002000590032601270B208DE8F10085
:101300000648FFF71FF8600269468DE8F1000448BF
:10131000FFF718F807B0F0BD303802400000024077
:101320000004024070B5044690F83C000D460128C8
:101330000ED0012684F83C60022084F83D000C2A7F
:1013400045D007DC5AB1042A1BD0082A78D12CE0FA
:10135000022070BD102A4ED0142A71D15DE02068A1
:1013600000F006FC2068816941F008018161206875
:10137000816921F00401816120682A698169114332
:1013800011E0206800F02EFC2068816941F40061C2
:1013900081612068816921F4806181612068296907
:1013A000826942EA012181614AE0206800F056FC2E
:1013B0002068C16941F00801C1612068C16921F05C
:1013C0000401C16120682A69C169114311E02068E4
:1013D00000F080FC2068C16941F40061C1612068AF
:1013E000C16921F48061C16120682969C26942EA4A
:1013F0000121C16124E0206800F098FC2068416D63
:1014000041F0080141652068416D21F0040141650A
:1014100020682A69416D114311E0206800F0B2FC98
:101420002068416D41F4006141652068416D21F4FF
:101430008061416520682969426D42EA0121416568
:10144000002084F83D6084F83C0070BD10B50400B5
:1014500003D094F83D0010B107E0012010BD00203A
:1014600084F83C00204600F00CF8022084F83D008F
:101470002068211D00F0F8FA012084F83D000020CA
:1014800010BD704710B501220446006800F052FB01
:101490000C492068884202D00B49884203D1416C34
:1014A00041F4004141642068084A816811400629DE
:1014B00006D0B1F5803F03D0016841F00101016021
:1014C000002010BD000001400004014007000100A1
:1014D00010B500220446006800F02CFB41F2111206
:1014E000104821689310814202D00F48814209D1EF
:1014F000086A104206D1086A184203D1486C20F4E9
:10150000004048642068016A114206D1016A19420C
:1015100003D1016821F001010160012084F83D0040
:10152000002010BD00000140000401407047000091
:101530002DE9F041026804460025D06911689368DE
:1015400010F00F0F5BD003F0010601F490773743E2
:1015500069D0C70707D0CF0505D501271762E26F0D
:1015600042F00102E267820708D5DA0706D0276851
:1015700002223A62E26F42F00402E267420708D5B3
:10158000DA0706D0236804221A62E26F42F00202F0
:10159000E26702070AD501F02002324306D0236831
:1015A00008221A62E26F42F00802E267E26F002A44
:1015B00032D0800605D5880603D5216E09B12046B4
:1015C00088472168E06F8968490601D4000725D55E
:1015D000204600F0B2FC20688168490619D5816870
:1015E00021F040018160E06E98B11A490165E06E1A
:1015F000FEF795FE00280FD0E06E016D06E0830631
:1016000011D58B060FD5216E12E02046BDE8F041C2
:1016100008472046FFF78AFFBDE8F0812046FFF724
:1016200085FFE567F8E7030605D50B0603D5616E70
:101630000029EAD1F0E74006EED54806ECD513685C
:101640002021204623F0400313606167656600F0A7
:10165000E7F8E1E7271F000810B5040002D0606F2B
:1016600010B107E0012010BD002084F87000204672
:1016700000F026F8242060672068016821F001014D
:101680000160204600F06AFC0128ECD0606A10B1CD
:10169000204600F0C6FB2068416821F4904141607B
:1016A0002068816821F02A0181602068016841F08A
:1016B000010101602046BDE8104000F016BC0000AA
:1016C00010B586B0044614216846FEF7E9FD1649B8
:1016D0002068884226D11548016841F480210160C4
:1016E000006800F48020059010481038016841F02F
:1016F0000801016000680221002200F00800059046
:10170000032307244FF440708DE81F000848694602
:10171000FEF718FE002201212720FEF761FF272097
:10172000FEF750FF06B010BD0048004040380240B0
:10173000000C02402DE9F84F0446806F9B46164688
:101740000D4620286AD1EDB1E6B194F87000012869
:1017500064D0012284F8702022214FF00008C4F8E0
:101760007C80A167FEF7DAFE8246A068A4F8586084
:101770004FF48053A4F85A60FF21984208D122699F
:101780001AB118E00120BDE8F88F40F2FF1112E015
:101790004FF07F0268B1B0F1805F0FD0A4F85C8099
:1017A0009842B4F85C7001D1206970B12E460025D2
:1017B0000CE0266936B9A4F85C10F1E7216909B19B
:1017C0003F21F8E7A4F85C20EAE7002607F0FF09CC
:1017D000B4F85A00E0B10022534620212046CDF84B
:1017E00000B000F0E5FC08B10320CCE72068406AB7
:1017F00056B100EA090006F8010B00BFB4F85A0020
:10180000401EA4F85A00E3E7384025F8020BF5E73C
:101810002021A167002084F87080B4E70220B2E79D
:101820007047FEE70D4808B5016841F0010101600D
:10183000016801F001010091016841F002010160BD
:10184000016801F002010091016841F008010160A6
:10185000006800F00800009008BD00003038024029
:1018600010B58EB000241C21009407A801940294A6
:101870000394049405940694FEF712FD2B4842F25B
:101880000F7140F237424FF08043C0E902410461DA
:101890008461C0E90032FFF773FC08B1FEF73EFD3A
:1018A0004FF48050009021486946FFF797FC08B13B
:1018B000FEF734FD1D48FFF7C9FD08B1FEF72EFD08
:1018C0001A4804A904940694FFF72AFC08B1FEF70D
:1018D00025FD07AA40F6C311702082E813001348C3
:1018E000002207A90B94FFF71DFD08B1FEF716FDB6
:1018F0000E48042207A9FFF715FD08B1FEF70EFDFB
:101900000A48082207A9FFF70DFD08B1FEF706FDFA
:1019100006480C2207A9FFF705FD08B1FEF7FEFCFB
:101920000248FFF7C9FC0EB010BD000028000020DF
:101930000D48002110B50B4C0C224FF416530460D7
:10194000C0E90131C160C0E904128161C161016275
:101950004162FFF781FE002803D0BDE81040FEF78A
:10196000DDBC10BD0048004068000020FEE7704765
:1019700070477047FEF7D8BD30B5B7B0342124A802
:10198000FEF78EFC142131A8FEF78AFC90216846F0
:10199000FEF786FC1D48016841F080510160006837
:1019A00000F0805036901A48016841F440410160CF
:1019B000006800250DF1B00C022424940822D823DD
:1019C000CDE92A4500F44040369010218CE81C00F7
:1019D00001202F94CDE9270124A8FFF7EFF9FEF7A6
:1019E00031FEE2024FF4A0510F20CDE9341231AAAA
:1019F000072182E8310031A8FFF7F8F8E0011395DC
:101A000000906846FEF754FE37B030BD40380240C3
:101A100000700040104A30B51048146800210F4B88
:101A200044F470041460083305680D4A0D4C45F009
:101A30000105056019600368051D1340074A03602E
:101A40000C322C600568E305034C25F48025056005
:101A5000803C1160236030BD88ED00E0003802401A
:101A6000FFFFF6FE10300024F0B5274B4FF0804EFC
:101A7000264D02689842264E264F274C09D07045C5
:101A800007D0A84205D0B04203D0B84201D0A0424E
:101A900005D1D1F804C022F070024CEA020298424B
:101AA0001BD0704519D0A84217D0B04215D0B8420B
:101AB00013D0A04211D0194DA8420ED0184DA84203
:101AC0000BD0184DA84208D0174DA84205D0174D8D
:101AD000A84202D0164DA84203D1CD6822F440722C
:101AE0002A434D6922F080022A43026098428A68A4
:101AF000C2620A68826201D0A04201D10969016311
:101B000001214161F0BD00000000014000040040DF
:101B100000080040000C004000040140004001406B
:101B2000004401400048014000180040001C0040F3
:101B30000020004010B5046A012301F01F018B4012
:101B40009C4304628A40016A1143016210BD42EA6B
:101B5000032283680A4323F47F410A43826070476B
:101B6000826822F070020A4342F0070181607047E8
:101B7000F0B5026ADFF860C0184F22F00102DFF80A
:101B800060E00262066A4268836926F002060D6818
:101B9000B8428C6803EA0C0323F0030344EA06040A
:101BA00045EA030501D0704505D1CB6824F008044F
:101BB000234323F00404B84201D0704505D122F438
:101BC0004076D1E9053233431A4342608561496862
:101BD00041630462F0BD00008FFFFEFF0000014082
:101BE00000040140F0B5026A194E1A4C22F01002AE
:101BF000DFF864E00262056A4368826925F0200527
:101C0000D1F808C0A0420F6802EA060222F440722E
:101C100045EA0C1542EA072201D0704506D1CE688C
:101C200025F0800545EA061525F04005A04201D0C3
:101C3000704507D1D1E9054623F4406343EA8403A4
:101C400043EA860343608261496881630562F0BDAF
:101C5000FF8FFFFE0000014000040140F0B5026A62
:101C6000194F1A4E22F48072DFF864E00262056AAE
:101C70004368C26925F40075D1F808C0B0420C6809
:101C800002EA070222F0030245EA0C2544EA0204B4
:101C900001D0704506D1CF6825F4006242EA0722E0
:101CA00022F48065B04201D0704507D123F4405240
:101CB000D1E9053642EA031242EA06134360C461E1
:101CC0004968C1630562F0BD8FFFFEFF000001405F
:101CD00000040140F0B5026A124B114F22F4805209
:101CE00098420262046A4268C36924F400548E6810
:101CF0000D6803EA070323F4407344EA063443EA19
:101D0000052302D0084DA84204D14D6922F4804237
:101D100042EA85124260C361496801640462F0BD11
:101D2000FF8FFFFE0000014000040140F0B5026A91
:101D3000DFF844C022F480320262056A4268446DD2
:101D400025F400350E8960450C4F0B6804EA070442
:101D500045EA064543EA040302D0094CA04204D1F7
:101D60004C6922F4803242EA0422426043654968A9
:101D700081650562F0BD0000000001408FFFFEFF9D
:101D800000040140F0B5026ADFF844C022F480127A
:101D90000262046A4268436D24F400140E896045AF
:101DA0000C4F0D6803EA070344EA065443EA05238F
:101DB00002D0094DA84204D14D6922F4802242EAA2
:101DC0008522426043654968C1650462F0BD000038
:101DD00000000140FF8FFFFE0004014010B5036AC0
:101DE000046A23F00A0324F00104046284690B43AB
:101DF00024F0F00141EA02118161036210BD10B5C7
:101E0000036A23F0100303628369046A23F47043B6
:101E100024F0A00443EA0232826144EA0111016223
:101E200010BD90F82410C90706D00168836A4A687B
:101E300022F400321A434A6090F82410890706D52C
:101E40000168C36A4A6822F480321A434A6090F8F3
:101E50002410490706D50168036B4A6822F48022E2
:101E60001A434A6090F82410090706D50168436BAD
:101E70004A6822F400421A434A6090F82410C906C6
:101E800006D50168836B8A6822F480521A438A60FF
:101E900090F82410890606D50168C36B8A6822F47D
:101EA00000521A438A6090F82410490611D501683F
:101EB000036C4A6822F480121A434A60016CB1F53F
:101EC000801F06D10168436C4A6822F4C0021A439D
:101ED0004A6090F82410090606D50168826C4868AB
:101EE00020F4002010434860704738B500250446B0
:101EF000C567FEF713FB03462068006800070BD593
:101F00006FF07E400090002220464FF4001100F058
:101F10004FF908B1032038BD2020606784F8705065
:101F2000A067002038BD10B5806B0021A0F85A10C2
:101F3000A0F85210FFF7FAFA10BD10B50168202280
:101F400000230C6824F490740C6001688C6824F001
:101F500001048C608267036610BD00002DE9F0412A
:101F600004468068DFF818C2864F2368D4E904521B
:101F7000E16928431E6800250A438349104306EAA5
:101F80000C0606431E604FF400422068E668436872
:101F900023F44053334343602368A669206AD3F88F
:101FA00008C030432CF4306606439E602068B84277
:101FB0000AD1086810F0030052D001287BD0022813
:101FC0007AD003286ED186E0704B98420AD1086817
:101FD00010F00C0079D004287BD0082877D00C288A
:101FE00060D178E06A4B98420AD1086810F030005E
:101FF0006BD010286DD0202869D0302852D16AE0EB
:10200000644B98420AD1086810F0C0005DD04028A7
:102010005FD080285BD0C02844D15CE05E4B984202
:102020000DD1086810F440704FD0B0F5807F50D0CB
:10203000B0F5007F4BD0B0F5407F33D14BE0574B2C
:1020400098420FD1086810F4406009D0B0F5806F55
:102050003FD0B0F5006F3AD0B0F5406F22D13AE0F2
:10206000012120E04E4B98420DD1086810F44050F9
:102070002BD0B0F5805F2CD0B0F5005F27D0B0F545
:10208000405F0FD127E0474B98420BD1086810F40E
:1020900040401AD0B0F5804F1BD0904217D0B0F519
:1020A000404F18D01021E0694FF6EF76904238D1BA
:1020B00009295DD202E00CE009E006E0DFE801F06A
:1020C0000D1027582A5858582D000021EBE70221FF
:1020D000E9E70421E7E70821E5E7FEF71DFE01E057
:1020E000FEF72AFE0146D4F80400490001EB500136
:1020F000B1FBF0F080B2A0F11001B14238D84FF638
:10210000F0732168C0F342021840104324E02649CE
:102110006068EBE7FEF720FEE4E760684FF480318B
:10212000E4E7092924D2DFE801F0050819231C237C
:1021300023231F00FEF7F0FD01E0FEF7FDFD014641
:10214000D4F8040001EB5001B1FBF0F080B2A0F133
:102150001001B1420CD82168C8600AE013496068D8
:10216000F0E7FEF7F9FDEAE7606802EB5001EBE704
:1021700001250020206660662846BDE8F081000049
:10218000F369FFEF00100140903802400044004026
:1021900000480040004C0040005000400014014046
:1021A00000780040007C00400048E8010024F40072
:1021B0002DE9F041984617460E460446069D08E074
:1021C000681C06D0FEF7AAF9A0EB0800A8420BD8BD
:1021D00055B12068C06936EA000017D00020B84227
:1021E000EED00020BDE8F0812168202000220B689D
:1021F00023F4D0730B6021688B6823F001038B609C
:102200006067A067032084F87020EBE70120E6E711
:102210000148FFF78DB9000068000020FEE70907BC
:1022200000284FEA116104DB00F1E02080F800147F
:10223000704700F00F0000F1E02080F8141D704797
:1022400002E008C8121F08C1002AFAD1704770477F
:10225000002001E001C1121F002AFBD170470000DD
:102260002DED088B82B0FEF767F9FFF785FBFFF7CE
:10227000D9FAFFF7F5FAFFF75BFB5D4E9FED5D9B2B
:102280009FED5EAB5F4C9FED60BB614DB0EE4B8B45
:1022900036E000BF94ED000B296820EE080BBCEE81
:1022A000C00B10EE100A486394ED020B296820EE73
:1022B000080BBCEEC00B10EE100AC86394ED040BC3
:1022C000296820EE080BBCEEC00B10EE100A086463
:1022D00000214F48FFF7D6F84D480821FFF7D2F804
:1022E0004B480C21FFF7CEF849480021FFF7F0F8E2
:1022F00047480821FFF7ECF845480C21FFF7E8F8BC
:102300003068C069C0438006C4D4394801224FF404
:102310007A736946FFF70EFA9DF80000722804D020
:10232000622811D067281ED02BE094ED000BB4EE8C
:10233000C90BF1EE10FA02D8B7EE000B01E030EE57
:102340004A0B84ED000B1CE094ED020BB4EEC90BBC
:10235000F1EE10FA02D8B7EE000B01E030EE4A0BB6
:1023600084ED020B0DE094ED040BB4EEC90BF1EE1D
:1023700010FA02D8B7EE000B01E030EE4A0B84ED04
:10238000040B94ED000B296820EE080BBCEEC00B8B
:1023900010EE100A486394ED020B296820EE080B3A
:1023A000BCEEC00B10EE100AC86394ED040B296854
:1023B00020EE080BBCEEC00B10EE100A08640021E2
:1023C0001348FFF75FF812480821FFF75BF8104841
:1023D0000C21FFF757F80E480021FFF779F80C4859
:1023E0000821FFF775F80A480C21FFF771F84DE74F
:1023F000680000207B14AE47E17A843F9A9999994E
:102400009999C93F00000020000000008087C34068
:10241000280000200000000000000000010203046A
:102420000607080900000000010203044C2400080C
:10243000000000202800000040220008742400084A
:1024400028000020C0040000502200080000000006
:102450000000F03F000000000000F03F000000001E
:102460000000F03F0100000010000000000000002C
:042470000024F40050
:04000005080001F9F5
:00000001FF
