:020000040800F2
:10000000180900200D020008DB1A00083F1800083C
:10001000D91A000869030008BF2300080000000087
:10002000000000000000000000000000DF1A0008CF
:100030006B03000800000000DD1A0008E11A000848
:1000400027020008270200082702000827020008EC
:1000500027020008270200082702000827020008DC
:1000600027020008270200082702000827020008CC
:1000700027020008270200082702000827020008BC
:1000800027020008270200082702000827020008AC
:10009000270200082702000827020008270200089C
:1000A00027020008E11B00082702000827020008B9
:1000B000F91B000827020008270200082702000891
:1000C000270200082702000827020008270200086C
:1000D000270200082702000827020008270200085C
:1000E000270200082702000827020008270200084C
:1000F000270200082702000827020008270200083C
:10010000270200082702000827020008270200082B
:10011000270200082702000827020008270200081B
:10012000270200082702000827020008270200080B
:1001300027020008270200082702000827020008FB
:1001400027020008270200082702000827020008EB
:1001500027020008270200082702000827020008DB
:1001600027020008270200082702000827020008CB
:1001700027020008270200082702000800000000EC
:1001800027020008270200082702000827020008AB
:10019000270200082702000827020008270200089B
:1001A000270200082702000827020008270200088B
:1001B000270200082702000827020008270200087B
:1001C000270200082702000800000000270200089C
:1001D000270200082702000827020008270200085B
:1001E000270200082702000827020008270200084B
:1001F0002702000827020008DFF80CD000F0A2F860
:1002000000480047B1270008180900200648804729
:1002100006480047FEE7FEE7FEE7FEE7FEE7FEE7EB
:10022000FEE7FEE7FEE7FEE78D1B0008F901000888
:100230002DE9F05F0546002092469B46884606461B
:10024000814640241BE0284641464746224600F0AE
:1002500069F853465A46C01A914110D311461846C0
:10026000224600F050F82D1A67EB01084F4622464F
:100270000120002100F047F817EB00094E41201E35
:10028000A4F10104DFDC484631462A464346BDE876
:10029000F09F40EA01039B0703D009E008C9121F41
:1002A00008C0042AFAD203E011F8013B00F8013B30
:1002B000521EF9D27047D2B201E000F8012B491E5C
:1002C000FBD270470022F6E710B513460A460446F3
:1002D0001946FFF7F0FF204610BD30B50B4601462A
:1002E00000202022012409E021FA02F59D4205D3D5
:1002F00003FA02F5491B04FA02F52844151EA2F17F
:100300000102F1DC30BD202A04DB203A00FA02F1C0
:10031000002070479140C2F1200320FA03F31943F3
:1003200090407047202A04DB203A21FA02F0002195
:10033000704721FA02F3D040C2F1200291400843F5
:1003400019467047064C074D06E0E06840F001038F
:1003500094E8070098471034AC42F6D3FFF750FFFB
:100360001028000830280008FEE77047704700009A
:1003700070B5044600F000F90546601C02D0044840
:100380000078044400F0F8F8401BA042FAD370BD96
:10039000040000202DE9F84FDFF89CE100224FF027
:1003A00001084FF0030B4FF00F0A00BF0B6808FA6B
:1003B00002F42340A34271D14D68022D01D0122DC9
:1003C0000FD1D5080E69570700EB8505A9462D6AA0
:1003D000FF0E0AFA07FCBE4025EA0C052E43C9F8B9
:1003E00020600F79550006680BFA05FC07F003073B
:1003F00026EA0C06AF40374307604E68012E05D051
:10040000022E03D0112E01D0122E0ED18668CF6895
:1004100026EA0C06AF403743876046680F79A6434B
:10042000C7F30017974037434760C4688E6824EAD3
:100430000C04AE402643C6604C68E40075D53F4CC2
:10044000256845F480452560246822F00306950759
:1004500004F4804400943A4C2D0F2644D6F8084802
:10046000DFF8E0C00AFA05F7604524EA070401D185
:1004700000272EE0344FB84201D1012729E0334F45
:10048000B84201D1022724E0314FB84201D10327FD
:100490001FE0304FB84202D104271AE045E02E4F4A
:1004A000B84201D1052714E02C4FB84201D10627EC
:1004B0000FE02B4FB84201D107270AE0294FB8427D
:1004C00001D1082705E0284FB84201D1092700E0F3
:1004D0000A27AF4027437546C6F808784E68DEF80D
:1004E0000040F60324EA030400D51C43124E2C609E
:1004F000361D4D683468AD0324EA030400D51C435F
:100500000D4F346008374D683C68ED0224EA03045F
:1005100000D51C43084D3C600C354E682C68B60273
:1005200024EA030400D51C432C60521C102AFFF45B
:100530003DAFBDE8F88F0000003C01404438024068
:100540000030014000000240000402400008024068
:10055000000C02400010024000140240001802404B
:10056000001C024000200240002402400AB18161C8
:1005700070470904FBE700000148806870470000ED
:1005800004000020024881680278114481607047AD
:1005900004000020032010B500F070F8002000F0E7
:1005A00005F800F023F8002010BD000070B50D4DD7
:1005B00004464FF47A700C4A29781268B0FBF1F0C7
:1005C000B2FBF0F000F09CFE48B9102C07D20022DC
:1005D0002146501E00F032F800206C6070BD0120F2
:1005E00070BD000004000020100000200B4882B005
:1005F000016841F080510160006800F08050009077
:100600000648001D016841F480410160006800F463
:1006100080400090052002B000F030B84038024021
:10062000002809DB410900F01F028900012001F1C7
:10063000E0219040C1F80001704700000E4BF0B47B
:100640001B680D46C3F30223C3F10706042E00D92D
:100650000426191D072901D2002300E0DB1E012416
:1006600004FA06F19C40491E2940641E994014403A
:100670002143F0BC01F0B8BE0CED00E0064900F0EB
:10068000070210B54FF6FF040868044B204040EA0B
:1006900002201843086010BD0CED00E00000FA05D0
:1006A00001680123C0F8FC33002280F8F423886934
:1006B000044A40F000608861486D1043486500209E
:1006C00070470000030000102DE9F04104008AB0DB
:1006D00004D094F8BD03002520B108E001200AB041
:1006E000BDE8F081204684F8BC5300F063F8032095
:1006F00084F8BD03206801F023FE04F11001684670
:1007000028228846FFF7C5FD94E80F0001F0F0FCB1
:100710000227E0BB2068002101F03AFE00200126FC
:1007200011E000BFC0EBC001421C04EB810181F865
:100730003D6081F83F504D648D640D6581F83C004B
:10074000A1F84200D0B261688142EBD8002011E0EC
:10075000C0EBC001421C04EB810181F8FD5181F81E
:10076000FF51C1F80452C1F80852C1F8105281F883
:10077000FC01D0B261688142EAD82822414668462D
:10078000FFF787FD94E80F0001F010FD10B184F829
:10079000BD73A3E7606A84F8385084F8BD6301280C
:1007A00002D12046FFF77CFF206801F0F3FC002017
:1007B00095E7000030B587B0044614216846FFF77E
:1007C00081FD2068B0F1A04F33D11B48016841F092
:1007D00001010160006800240221184D00F00100B1
:1007E00005904FF4E8500A238DE813000322694670
:1007F000CDE903232846FFF7CDFD68156946CDE90D
:10080000000428460294FFF7C5FD0B48001D01684F
:1008100041F080010160006800F08000059006480A
:100820001430016841F480410160006800F48040A8
:10083000059007B030BD0000303802400000024093
:100840001848F8B5016841F0805101600068164C05
:1008500000F080500090206840F480302060FFF766
:100860008BFE4FF47A76054605E000BFFFF784FE65
:10087000401BB0420FD86068C003F7D5206840F431
:1008800000302060FFF778FE054606E0FFF774FEB3
:10089000401BB04201D90320F8BD60688003F5D544
:1008A0000020F8BD40380240007000400248016856
:1008B00041F4807101607047007000402DE9F84FED
:1008C00004460078DFF824944FF000063746C0074E
:1008D0000ED0D9F8001021F40001C9F80010D9F8A1
:1008E0000010626B1143C9F80010606B00B901265B
:1008F000FE4D2068843500030ED5E16B286820F496
:10090000401008432860E06BB0F5801F01D010B1A3
:1009100002E0012600E0012720684FF4800BC002AE
:100920000CD5216C286820F4400008432860206C16
:10093000584501D1012601E000B901272068C10115
:1009400000D50126800666D5E8483830016841F0B8
:10095000805101600068DFF898A300F0805000909B
:10096000DAF8001041F48071CAF80010FFF704FEB5
:10097000804605E0FFF700FEA0EB080064287DD864
:10098000DAF80000C005F5D5DFF8608308F16808E3
:10099000D8F8000010F440702AD0218E01F4407184
:1009A000814225D0D8F80010D8F8002021F44071F9
:1009B00042F48032C8F80020D8F8002022F48032B7
:1009C000C8F80020C8F80010D8F80000C0070FD001
:1009D000FFF7D2FD824607E0FFF7CEFDA0EB0A014C
:1009E00041F288308142CAD8D8F800008007F3D598
:1009F000206BC0F3012103297ED0D9F8001021F427
:100A0000F811C9F80010228ED8F80010C2F30B02BA
:100A10001143C8F800102078C00607D5286820F0D8
:100A2000807028602868A16B084328602188AF483F
:100A30008830490405D5626E016821F440311143C4
:100A400001602188090405D5A26E016821F44021C6
:100A5000114301602168C90305D5E26E016821F4E4
:100A60004011114301602168890305D5226F016897
:100A700021F4400111430160217800E034E149068E
:100A800005D5626C016821F00301114301602178F2
:100A9000090605D5A26C016821F00C011143016023
:100AA0002188C90505D5E26C016821F030011143A8
:100AB00001602188890505D5226D016821F0C001FA
:100AC000114301602188490505D5626D016821F453
:100AD0004071114301602188090505D5A26D0168A7
:100AE00021F44061114301602188C90407D5E26DFA
:100AF000016821F4405100E05FE01143016021886A
:100B0000890405D5226E016821F44041114301603A
:100B10002168490205D5A26F016821F08061114367
:100B2000016021684FF0006A890209D5E26F01680F
:100B300021F0006111430160E16F514500D10127AF
:100B400021680A0700D50127490305D5626F0168AE
:100B500021F04071114301602168090206D5D4F8E3
:100B60008020016821F08051114301602168490112
:100B700006D5D4F88420016821F0005111430160AA
:100B80002068000106D5D4F88810286820F000708D
:100B9000084328602068C00006D5D4F88C10286867
:100BA00020F0806008432860DFF84891012E0ED0C5
:100BB0002068B0F1007F0AD08FE04F4AD9F80030AA
:100BC000104023F4F8120243C9F800201BE7D9F8BB
:100BD00000004E4620F08060C9F80000FFF7CCFC12
:100BE000804605E0FFF7C8FCA0EB080064287BD82E
:100BF00030680001F6D421783C487C30C90712D017
:100C0000616B81B9237A62680168D0F800C09201F3
:100C1000C1F3014142EA0142CCF3036142EA0161BE
:100C200041EA0371016021680A0303D5E26BB2F562
:100C3000801F04D0C9021AD5216C594517D16368A9
:100C4000016894F80CC002689B01C1F3014143EABA
:100C50000141C2F3027241EA0C6141EA0271016092
:100C60002968626A21F01F01521E11432960216820
:100C7000C90110D5238A62680168D0F800C09201CA
:100C8000C1F3036142EA034242EA0162CCF302711A
:100C900042EA01710160216889010CD56168228AEC
:100CA000237B94F808C0890141EA024141EA0361CB
:100CB00041EA0C7101603168B04641F080613160F9
:100CC000FFF75AFC064604E0FFF756FC801B642839
:100CD0000AD8D8F800000001F6D5E7B3D9F800002B
:100CE0004E4620F0805009E07BE0000008380240CA
:100CF0000070004000380240FFFCFF0FC9F8000000
:100D0000FFF73AFC074604E0FFF736FCC01B6428F7
:100D100067D83068C0438000F6D5216835480A039B
:100D200001D5E26B1AB1C9021DD5216CD9B963692D
:100D30000168277E02689B01C1F3014143EA014338
:100D4000C2F3027143EA076242EA01710160296855
:100D50006FF0FF0300E04BE0A26A21F4F85103EBCF
:100D60000222114329602168890212D5E16F5145A1
:100D70000FD1238C6269016807689201C1F3036196
:100D800042EA034242EA0162C7F3027142EA017198
:100D900001602178090716D561690268D0F800C0A2
:100DA0008B01277FC2F30362CCF3014143EA014187
:100DB00041EA026141EA077101602868E16A20F4B2
:100DC000403008432860306840F080503060FFF7C2
:100DD000D3FB044608E000BFFFF7CEFB001B6428EE
:100DE00002D90320BDE8F88F3068C0438000F3D4F7
:100DF0000020F7E7883802402DE9F04705000F464C
:100E000063D0444E306800F00F00B84209D2306819
:100E100020F00F0038433060306800F00F00B84217
:100E200053D128683C4C810712D5400703D5206870
:100E300040F4E05020602878000703D5206840F493
:100E400060402060A968206820F0F000084320601E
:100E50002878C0072AD0304968680839012810D09E
:100E60000968022810D0890700292EDA216821F0AC
:100E7000030101432160FFF77FFB804641F288397F
:100E80000DE009688903EFE78901EDE7FFF774FBDF
:100E9000A0EB0801494502D90320BDE8F087686846
:100EA000216801F00C01B1EB800FEFD1306800F048
:100EB0000F00B8420BD9306820F00F003843306083
:100EC000306800F00F00B84201D00120E5E7287833
:100ED000400705D5E968206820F4E0500843206009
:100EE0002878000706D52869216821F4604141EA85
:100EF000C000206000F036F82168084AC1F30311F1
:100F0000515CC840064908600020FFF74FFB0020F5
:100F1000C3E70000003C024008380240F827000800
:100F2000100000200449054809680068044AC1F31C
:100F30008221515CC84070470838024010000020F0
:100F4000082800080449054809680068044AC1F3F4
:100F50004231515CC8407047083802401000002000
:100F600008280008154910B51548096811F00C0249
:100F700013D04110042A0FD0082A0ED10F4C241F81
:100F80002268236802F03F025B0207D52068C0F3A5
:100F90008810A0FB010106E0084610BD2168C1F3DE
:100FA0008811A1FB00010023FFF742F92168C1F37A
:100FB0000141491C4900B0FBF1F010BD0838024066
:100FC0000024F4002DE9F84F05004FF000076ED023
:100FD0002878DFF82093A9F1040AC007AAF10404D5
:100FE0004CD0D9F800104846C1F38101012908D03E
:100FF0000068C0F3810002280AD1DAF8000040023C
:1010000006D52068800339D568680028DFD035E030
:101010006868B0F5803F0BD010B1B0F5A02F11D0AB
:10102000206820F480302060206820F4802002E0D6
:10103000206840F480302060686890B1FFF79CFA27
:1010400006460AE0206840F480202060F0E700BFF8
:10105000FFF792FA801B642872D820688003F7D5C6
:101060000CE0FFF789FA064605E000BFFFF784FAB7
:10107000801B6428F0D820688003F7D42878800784
:1010800042D5D9F80010484611F00C0F08D000687E
:10109000C0F3810002280BD1DAF80000400207D427
:1010A0002068800718D5E868012800D114E01EE107
:1010B000E8680028206817D040F001002060FFF7A2
:1010C0005BFA064605E000BFFFF756FA801B0228D0
:1010D000C2D820688007F7D52869216821F0F80177
:1010E00041EAC00020600FE020F001002060FFF71F
:1010F00043FA064605E000BFFFF73EFA801B0228D0
:101100001ED820688007F7D42878000729D57948A9
:1011100069696C3000298046016812D041F00101F4
:101120000160FFF729FA064605E000BFFFF724FA41
:10113000801B022804D8D8F800008007F6D510E0FC
:1011400089E021F001010160FFF716FA064604E08C
:10115000FFF712FA801B02287DD8D8F8000080071C
:10116000F6D4287840076BD5DFF8888108F1380875
:10117000D8F80000C0000BD4D8F8001041F080511E
:10118000C8F80010D8F80000012700F08050009047
:1011900059480168C90512D40168834641F4807139
:1011A0000160FFF7E9F9064605E000BFFFF7E4F943
:1011B000801B64284FD8DBF80000C005F6D54D4EE3
:1011C000A868683601280AD008B1052811D030680F
:1011D00020F001003060306820F0040002E0306848
:1011E00040F001003060A868A0B1FFF7C5F9834660
:1011F0000CE0306840F004003060F0E7FFF7BCF925
:10120000A0EB0B0141F28830814268D8306880073A
:10121000F4D50EE0FFF7B0F9834607E0FFF7ACF92D
:10122000A0EB0B0141F28830814258D8306880072A
:10123000F4D42FB1D8F8001021F08051C8F8001074
:10124000A869E0B3D9F80010C1F3810102294ED09A
:101250000228206800E042E020F08070206003D087
:10126000FFF78AF905463DE0FFF786F9064604E0F8
:10127000FFF782F9801B022831D820688001F7D45B
:10128000D5E90921DFF874C0D5E9070695F83030B3
:101290004F0895F82C1030430CEB074545EA8212B5
:1012A000104340EA016040EA0370CAF80000206879
:1012B00040F080702060FFF75FF9054605E014E01C
:1012C000FFF75AF9401B022809D820688001F7D59A
:1012D0000BE000BFFFF750F9401B022802D90320A2
:1012E000BDE8F88F20688001F4D40020F8E70120E1
:1012F000F6E7000008380240007000400000FFFFE1
:10130000401EB0F1807F10B501D3012010BD4FF019
:10131000E02460610F21601701F066F80020A061F1
:101320000721216110BD70477047704770B590F874
:101330003C20012A24D0134C012580F83C50022285
:1013400080F83D2002685368A242966802D00E4C95
:10135000A24203D14C6823F4700323430C6823F0AA
:10136000700389681C435460002326F080060268DD
:101370003143916080F83D5080F83C30184670BD94
:10138000022070BD000001400004014010B50400BF
:1013900003D094F83D0010B107E0012010BD0020FB
:1013A00084F83C00204600F00DF8022084F83D004F
:1013B0002068211D00F026FC012084F83D0000205B
:1013C00010BD000008B50068154988420FD11548C6
:1013D000016841F00101016000680022012100F074
:1013E000010000901920FFF729F9192012E0B0F14F
:1013F000804F13D10B48001F016841F001010160CB
:1014000000680022022100F0010000901C20FFF77C
:1014100015F91C20BDE80840FFF702B908BD00001F
:1014200000000140443802400168094ACB6843F09B
:101430000103CB60016888681040062806D0B0F52B
:10144000803F03D0086840F001000860002070472A
:101450000700010070B5044690F83C00012817D041
:10146000324B012584F83C50022084F83D0022686C
:101470009068184020F47F4090600868502830D071
:101480000DDC20284DD005DC98B310283BD148E076
:10149000022070BD302844D0402834D139E0602883
:1014A00028D0702806D0B0F5805F2CD0B0F5005F52
:1014B00029D10AE04A682068D1E9021300F008FC4B
:1014C0002068816841F0770109E04A682068D1E925
:1014D000021300F0FDFB2068816841F480418160C7
:1014E00011E0CA684968206800F003FC20685021B8
:1014F00007E016E0CA684968206800F00BFC206825
:10150000602100F0EEFB002084F83D5084F83C00A0
:1015100070BDCA684968206800F0EBFB2068402174
:10152000EFE7226801461046EBE7000088FFFEFF68
:10153000704770B50446006800250169C9438907F2
:1015400015D4C168C943890711D4EA1E026101217B
:101550002177206880698007204602D0FFF7E8FFE6
:1015600004E000F0A7F8204600F0A5F825772068F1
:101570000169C943490717D4C168C943490713D44E
:1015800002216FF00402026121772068806910F463
:10159000407F204602D0FFF7CBFF04E000F08AF83E
:1015A000204600F088F8257720680169C9430907BB
:1015B00016D4C168C943090712D404216FF0080288
:1015C000026121772068C0698007204602D0FFF7BA
:1015D000AFFF04E000F06EF8204600F06CF82577CD
:1015E00020680169C943C90617D4C168C943C9063F
:1015F00013D408216FF01002026121772068C069BE
:1016000010F4407F204602D0FFF792FF04E000F084
:1016100051F8204600F04FF8257720680169C9434A
:10162000C90708D1C168C943C90704D1891E01612E
:10163000204600F041F820680169C943090609D431
:10164000C168C943090605D46FF0800101612046D5
:10165000FFF76AFE20680169C943C90509D4C1685A
:10166000C943090605D46FF4807101612046FFF774
:101670005AFE20680169C943490609D4C168C943B3
:10168000490605D46FF040010161204600F015F8CD
:1016900020680169C94389060BD4C168C94389061A
:1016A00007D46FF0200101612046BDE87040FFF7CC
:1016B0003CBE70BD704770477047704710B504005E
:1016C00002D0606F10B107E0012010BD002084F847
:1016D0007000204600F026F824206067206801682A
:1016E00021F001010160204600F0A8FB0128ECD0A8
:1016F000606A10B1204600F01FFB2068416821F4A9
:10170000904141602068816821F02A018160206851
:10171000016841F0010101602046BDE8104000F081
:101720006FBB000010B586B0044614216846FEF772
:10173000C9FD1249206888421ED11148016841F450
:1017400080210160006800F4802005900C4810386A
:10175000016841F00801016000680221002200F0E8
:1017600008000590032307244FF440708DE81F0004
:1017700004486946FEF70EFE06B010BD0048004062
:1017800040380240000C02402DE9F8430446406F07
:101790001F4616460D4620284FD1CDB1C6B194F84C
:1017A0007000012849D0012284F8702021214FF0D7
:1017B0000008C4F87C806167FEF7DEFE8146A06801
:1017C000A4F85060A4F85260B0F5805F03D004E044
:1017D0000120BDE8F883206910B12E46002510E0F5
:1017E00000260EE08021204600F052FCB8B9C6B1B8
:1017F00016F8010B21688862B4F85200401EA4F864
:101800005200B4F852004B464FF0000200970028F7
:10181000E8D14FF04001204600F03AFC38B10320F7
:10182000D7E735F8020B2168C0F30800E3E7202171
:101830006167002084F87080CBE70220C9E7FEE7EB
:101840002DE9F04F87B014216846FEF73BFD4B4869
:10185000016841F004010160016801F00401059193
:10186000016841F080010160016801F0800105918B
:10187000016841F001010160016801F00101059179
:10188000016841F002010160016801F00201059167
:10189000016841F008010160016801F0080105914B
:1018A000016841F04001016000684FF48149DFF8B0
:1018B000D0B0002200F04000494605905846FEF79F
:1018C00055FE304800224021FEF750FE00242E49EC
:1018D000DFF8B8A04FF40058CDF80080CDE901142E
:1018E00069465046FEF756FD02256946322002AA97
:1018F000CDE90005032650460B2782E8D000FEF70D
:1019000049FD8620694602AACDE90005204882E803
:10191000D000FEF73FFD02AA6946584682E8D00093
:10192000CDE90085FEF736FD4FF00108CDF80090B7
:10193000CDE90184694658460394FEF72BFD40210A
:101940000091CDE901840F4869460394FEF722FD1A
:1019500080206946CDE900040A480294FEF71AFD8A
:101960004FF42050694602AACDE90005054882E8F7
:10197000D000FEF70FFD07B0BDE8F08F3038024011
:10198000000402400018024000001110000802404C
:101990000000024010B588B0184800241649D7222C
:1019A00040F2E73300940194029403940494059464
:1019B000069480E81600C0E9033444618461FFF7AF
:1019C000E5FC08B1FEF7D2FC4FF4805000900B48C4
:1019D0006946FFF73FFD08B1FEF7C8FC074804A9B8
:1019E000049405940694FFF7A1FC002801D0FEF7AB
:1019F000BDFC08B010BD0000000001401400002034
:101A000010B588B0154800244FF08041009401942F
:101A100002940394049405940694C0E9001484602D
:101A2000C46004618461FFF7B1FC08B1FEF79EFC5D
:101A30004FF48050009009486946FFF70BFD08B14C
:101A4000FEF794FC054804A904940694FFF76EFC85
:101A5000002801D0FEF78AFC08B010BD5400002019
:101A60000D48002110B50B4C0C224FF4E1330460FB
:101A7000C0E90131C160C0E904128161C161016244
:101A80004162FFF71BFE002803D0BDE81040FEF7BF
:101A90006DBC10BD00480040940000200D4800219E
:101AA00070B50222C0E90321012382610624C0E946
:101AB000073141624FF0A045C0E90B31C0E9005445
:101AC000FEF702FE002803D0BDE87040FEF74EBCD2
:101AD00070BD000014010020FEE77047704770479A
:101AE000FEF750BD70B5B8B0342124A8FEF7EAFB6C
:101AF000142131A8FEF7E6FB90216846FEF7E2FBD1
:101B0000FEF7D4FE1E48016841F080510160006874
:101B100000F0805036901B48016841F4404101605C
:101B200000684FF4A021022400F4404036900120C8
:101B3000D825820509260423CDE92A42CDE92401CE
:101B4000CDE92C35CDE92E4624A8FFF73BFAFEF768
:101B500077FEE2024FF4A0510025CDE9341231AAFC
:101B60000F20072182E8310031A8FFF745F9064828
:101B700013951F9500906846FEF7A0FE38B070BD23
:101B8000403802400070004000012000104A30B58B
:101B90001048146800210F4B44F47004146008339B
:101BA00005680D4A0D4C45F0010505601960036894
:101BB000051D1340074A03600C322C600568E305DD
:101BC000034C25F480250560803C1160236030BD06
:101BD00088ED00E000380240FFFFF6FE10300024E0
:101BE00003480168491C01600248FFF7A2BC0000DD
:101BF00000000020140000200148FFF79ABC0000FC
:101C000054000020F0B5274B4FF0804E264D02685F
:101C10009842264E264F274C09D0704507D0A8423F
:101C200005D0B04203D0B84201D0A04205D1D1F8CE
:101C300004C022F070024CEA020298421BD07045A8
:101C400019D0A84217D0B04215D0B84213D0A04244
:101C500011D0194DA8420ED0184DA8420BD0184DE6
:101C6000A84208D0174DA84205D0174DA84202D06F
:101C7000164DA84203D1CD6822F440722A434D6923
:101C800022F080022A43026098428A68C2620A688F
:101C9000826201D0A04201D1096901630121416141
:101CA000F0BD0000000001400004004000080040BA
:101CB000000C00400004014000400140004401408D
:101CC0000048014000180040001C00400020004077
:101CD00042EA032283680A4323F47F410A43826075
:101CE0007047826822F070020A4342F00701816067
:101CF000704710B5036A046A23F00A0324F0010454
:101D0000046284690B4324F0F00141EA021181610D
:101D1000036210BD10B5036A23F0100303628369E8
:101D2000046A23F4704324F0A00443EA023282617F
:101D300044EA0111016210BD90F82410C90706D0D1
:101D40000168836A4A6822F400321A434A6090F8B4
:101D50002410890706D50168C36A4A6822F48032D4
:101D60001A434A6090F82410490706D50168036BAE
:101D70004A6822F480221A434A6090F82410090726
:101D800006D50168436B4A6822F400421A434A6050
:101D900090F82410C90606D50168836B8A6822F47E
:101DA00080521A438A6090F82410890606D501688B
:101DB000C36B8A6822F400521A438A6090F8241098
:101DC000490611D50168036C4A6822F480121A434F
:101DD0004A60016CB1F5801F06D10168436C4A6806
:101DE00022F4C0021A434A6090F82410090606D56E
:101DF0000168826C486820F40020104348607047F6
:101E000038B500250446C567FEF7B6FB03462068D3
:101E1000006800070BD56FF07E400090002220463E
:101E20004FF4001100F034F908B1032038BD202030
:101E3000606784F87050A067002038BD2DE9F0413C
:101E400004468068DFF818C2864F2368D4E904523C
:101E5000E16928431E6800250A438349104306EAC6
:101E60000C0606431E604FF400422068E668436893
:101E700023F44053334343602368A669206AD3F8B0
:101E800008C030432CF4306606439E602068B84298
:101E90000AD1086810F0030052D001287BD0022834
:101EA0007AD003286ED186E0704B98420AD1086838
:101EB00010F00C0079D004287BD0082877D00C28AB
:101EC00060D178E06A4B98420AD1086810F030007F
:101ED0006BD010286DD0202869D0302852D16AE00C
:101EE000644B98420AD1086810F0C0005DD04028C9
:101EF0005FD080285BD0C02844D15CE05E4B984224
:101F00000DD1086810F440704FD0B0F5807F50D0EC
:101F1000B0F5007F4BD0B0F5407F33D14BE0574B4D
:101F200098420FD1086810F4406009D0B0F5806F76
:101F30003FD0B0F5006F3AD0B0F5406F22D13AE013
:101F4000012120E04E4B98420DD1086810F440501A
:101F50002BD0B0F5805F2CD0B0F5005F27D0B0F566
:101F6000405F0FD127E0474B98420BD1086810F42F
:101F700040401AD0B0F5804F1BD0904217D0B0F53A
:101F8000404F18D01021E0694FF6EF76904238D1DB
:101F900009295DD202E00CE009E006E0DFE801F08B
:101FA0000D1027582A5858582D000021EBE7022120
:101FB000E9E70421E7E70821E5E7FEF7B3FF01E0E1
:101FC000FEF7C0FF0146D4F80400490001EB5001C0
:101FD000B1FBF0F080B2A0F11001B14238D84FF659
:101FE000F0732168C0F342021840104324E02649F0
:101FF0006068EBE7FEF7B6FFE4E760684FF4803116
:10200000E4E7092924D2DFE801F0050819231C239D
:1020100023231F00FEF786FF01E0FEF793FF014632
:10202000D4F8040001EB5001B1FBF0F080B2A0F154
:102030001001B1420CD82168C8600AE013496068F9
:10204000F0E7FEF78FFFEAE7606802EB5001EBE78D
:1020500001250020206660662846BDE8F08100006A
:10206000F369FFEF00100140903802400044004047
:1020700000480040004C0040005000400014014067
:1020800000780040007C00400048E8010024F40093
:102090002DE9F041984617460E460446069D08E095
:1020A000681C06D0FEF768FAA0EB0800A8420BD81F
:1020B00055B12068C06936EA000017D00020B84248
:1020C000EED00020BDE8F0812168202000220B68BE
:1020D00023F4D0730B6021688B6823F001038B60BD
:1020E0006067A067032084F87020EBE70120E6E733
:1020F00070B504460698049D0D99012815D0E06836
:1021000040F04000E060204600F028F8A16B41F468
:102110008031A163012D07D1A16841F00601A160C2
:10212000A16841F02001A16070BDA06B01290A4A9D
:1021300020F48030A063E06800EA0200E060E0681C
:1021400020F44010E06003D1E06840F48010E060CB
:10215000204600F003F8DDE7BFFFBDFF0C49012278
:1021600002E0521C8A420BD80369002BF9DA03699A
:10217000012243F00103036104E0521C8A4201D9A9
:10218000032070470369DB07F7D100207047000088
:10219000400D030010B5D0F8041841F00201C0F85A
:1021A00004180320FEF7E4F8002010BD2DE9F04FDD
:1021B0000E4604460021DDE90B2BDDF840800D467C
:1021C000099F084604EB800CCCF80411401C0F2832
:1021D000F8D32046A06BB8F1000F15D040F4001CD6
:1021E000C4F838C089460846C4F8000E2046D4F822
:1021F0000018012AC4F8001834D0032A32D0D0F8CD
:10220000001841F0030111E020F4001CC4F838C0AC
:10221000206840F0400CC4F800C0206840F0800CFA
:10222000C4F800C0DEE700BF41F00101C0F80018AB
:10223000102100F09BF800B10125204600F086F83F
:1022400000B1012548464FF0006C4FF67F334FF048
:10225000904AC4F81098C4F81498C4F81C98002147
:10226000994619E0D0F80018002BDFD0DCE700BF5A
:1022700004EB4112D2F80039002B06DA11B1C2F892
:1022800000A904E0C4F800C901E0C2F80009C2F8DE
:102290001009C2F80899491C8E42E9D8002113E0C0
:1022A00004EB4112D2F8003B002B06DA11B1C2F860
:1022B00000AB04E0C4F800CB01E0C2F8000BC2F8A8
:1022C000100BC2F8089B491C8E42E9D8D4F81018AC
:1022D000012F21F480722146C4F8102808D1144B34
:1022E000144AC1F83038D1F830181143C4F8301806
:1022F0006FF08041A06161611FB9A06940F01000DA
:10230000A061A069BBF1000F0B4A40EA0200A06186
:1023100003D0A06940F00800A061B8F1010F03D11B
:10232000A06906490843A0612846BDE8F08F000077
:10233000000180000300010000383C8004000040E0
:10234000816821F00101816000207047064A102158
:1023500001610021491C914201D9032070470369A2
:10236000DB06F7D400207047400D03002023074A06
:1023700043EA811303610021491C914201D90320E2
:10238000704703699B06F7D400207047400D030097
:1023900010B5C268012922F0C042C26002D029B142
:1023A000012010BDC16841F0005102E0C16841F058
:1023B0008041C1603220FDF7DBFF002010BDFEE749
:1023C0000FB4084B10B504A902AA039800F02CF82A
:1023D000044602A9002000F0C8F9204610BC5DF8B0
:1023E00014FB00006B270008090700284FEA116161
:1023F00004DB00F1E02080F80014704700F00F00CB
:1024000000F1E02080F8141D704702E008C8121F98
:1024100008C1002AFAD170477047002001E001C1CD
:10242000121F002AFBD170472DE9FF4F8BB0884661
:102430000546002606E025280BD0DDE90D12904761
:102440006D1C761C28780028F5D10FB03046BDE809
:10245000F08F0024A146A2460122AE4900E00443C9
:1024600015F8013F203B02FA03F00842F7D1287823
:102470002A2810D06FF02F022878A0F13001092906
:1024800015D809EB890102EB410144F0020400EB8D
:1024900001096D1CF0E758F8041B5FEA010903D538
:1024A00044F40054C9F1000944F002046D1C28787A
:1024B0002E2817D115F8010F44F004042A280ED055
:1024C0006FF02F022878A0F1300109290AD80AEB11
:1024D0008A0102EB410100EB010A6D1CF2E758F89A
:1024E00004AB6D1C28786C280FD006DC4C2817D064
:1024F00068280DD06A2814D104E0742810D07A28F6
:102500000FD10DE044F400140AE044F4801401E01B
:1025100044F440146978814202D104F580146D1CA2
:102520006D1C2878692865D006DC00288DD06328CA
:1025300027D0642806D15DE06E2808D073282AD001
:10254000752877D0DDE90D129047761CE0E0C4F3E2
:102550000250022809D003280DD0D8F80010042812
:102560000DD00E6008F10408D2E0D8F80010F21780
:10257000C1E90062F6E7D8F800100E80F2E70E70AD
:10258000F0E718F8041B8DF8001000208DF801000A
:10259000EB46012003E058F804BB4FF0FF30610721
:1025A0004FF0000701D40AE07F1C57450DDA87423F
:1025B000FADB1BF807100029F6D106E07F1C8742E2
:1025C000FCDB1BF807100029F8D1DDE90D23A9EB8E
:1025D00007008146214600F0B1F83044C61904E0F6
:1025E000DDE90D121BF8010B90477F1EF8D2214642
:1025F000484688E058F8040BC4F302514FF00A0B28
:10260000032900D100B2042900D140B2002802DA27
:1026100040422D2102E0210505D52B218DF8241003
:10262000012104E006E0E10710D02021F6E708AF21
:10263000089113E058F8040BC4F302514FF00A0B51
:10264000032900D180B2042900D1C0B20021EEE7F5
:102650005946FDF742FE303107F8011D0028F7D139
:10266000ADEB070000F1200B600702D524F48034A5
:1026700001E04FF0010ADA4502DDAAEB0B0000E0B1
:102680000020824600EB0B0108980144A9EB0100F1
:102690000A90E00306D4DDE90D2321460A9800F0F4
:1026A0004DF806444FF0000908E009A911F80900A7
:1026B000DDE90D12904709F10109761C0899894559
:1026C000F3DBE0030CD5DDE90D2321460A9800F089
:1026D00035F8064404E0DDE90D1230209047761C01
:1026E000BAF10001AAF1010AF5DC05E0DDE90D12FD
:1026F00017F8010B9047761CBBF10001ABF1010B01
:10270000F4DC0A982146DDE90D2300F005F80644C3
:102710006D1C97E6092801002DE9F04104460025CB
:102720001E461746880404D405E039462020B047E9
:102730006D1C641EF9D52846BDE8F0812DE9F041F5
:10274000044600251E469046C80301D5302700E008
:102750002027880404D505E041463846B0476D1C63
:10276000641EF9D52846BDE8F0810A68531C0B6049
:102770001070704700B58DB0024609A16846FFF79A
:102780001FFE0A480068C169C9434906FBD40748CF
:102790000C224FF47A736946FEF7F6FF0DB000BDC8
:1027A0002531302E3130640D0A00000094000020E5
:1027B000FDF7F0FEFFF796F9FFF742F8FFF7EAF8AA
:1027C000FFF71EF9FFF74CF9FFF768F90748FEF726
:1027D0002BFE0748FEF728FE064D4FF4C87420462E
:1027E000FDF7C6FD2868FFF7C5FFF8E714000020D5
:1027F0005400002000000020000000000000000045
:102800000102030406070809000000000102030496
:102810003028000800000020140000000A240008EE
:102820004428000814000020040900001A240008AD
:102830000000000001000000100000000000000087
:042840000024F4007C
:04000005080001F9F5
:00000001FF
