:020000040800F2
:10000000180400200D020008CD0E00086D0E000837
:10001000C90E000819030008F90F000800000000CD
:10002000000000000000000000000000D10E0008E9
:100030001D03000800000000CF0E0008D30E0008CA
:1000400027020008270200082702000827020008EC
:1000500027020008270200082702000827020008DC
:1000600027020008270200082702000827020008CC
:1000700027020008270200082702000827020008BC
:1000800027020008270200082702000827020008AC
:10009000270200082702000827020008270200089C
:1000A000270200082702000827020008270200088C
:1000B000270200082702000827020008270200087C
:1000C000270200082702000827020008270200086C
:1000D000270200082702000827020008270200085C
:1000E000270200082702000827020008270200084C
:1000F000270200082702000827020008270200083C
:10010000270200082702000827020008270200082B
:10011000270200082702000827020008270200081B
:10012000270200082702000827020008270200080B
:1001300027020008270200082702000827020008FB
:1001400027020008270200082702000827020008EB
:1001500027020008270200082702000827020008DB
:1001600027020008270200082702000827020008CB
:1001700027020008270200082702000800000000EC
:1001800027020008270200082702000827020008AB
:10019000270200082702000827020008270200089B
:1001A000270200082702000827020008270200088B
:1001B000270200082702000827020008270200087B
:1001C000270200082702000800000000270200089C
:1001D000270200082702000827020008270200085B
:1001E000270200082702000827020008270200084B
:1001F0002702000827020008DFF80CD000F07AF888
:100200000048004781100008180400200648804775
:1002100006480047FEE7FEE7FEE7FEE7FEE7FEE7EB
:10022000FEE7FEE7FEE7FEE7950F0008F90100088C
:100230002DE9F05F0546002092469B46884606461B
:10024000814640241BE0284641464746224600F0AE
:1002500041F853465A46C01A914110D311461846E8
:10026000224600F028F82D1A67EB01084F46224677
:100270000120002100F01FF817EB00094E41201E5D
:10028000A4F10104DFDC484631462A464346BDE876
:10029000F09FD2B201E000F8012B491EFBD270475B
:1002A0000022F6E710B513460A4604461946FFF742
:1002B000F0FF204610BD202A04DB203A00FA02F1AC
:1002C000002070479140C2F1200320FA03F3194344
:1002D00090407047202A04DB203A21FA02F00021E6
:1002E000704721FA02F3D040C2F120029140084346
:1002F00019467047064C074D06E0E06840F00103E0
:1003000094E8070098471034AC42F6D3FFF778FF23
:10031000281100084811000800BFFEE77047704729
:10032000F8B502460B46002100250024002000BF3E
:10033000E4E0012606FA01F51E6806EA0504AC426F
:1003400071D15E68022E02D05E68122E13D1CF08E2
:1003500002F1200656F827004E07F70E0F26BE4082
:10036000B0434F07FF0E1E69BE403043CF0802F175
:10037000200646F8270010684F000326BE40B04311
:100380001E7906F003064F00BE40304310605E68E1
:10039000012E08D05E68022E05D05E68112E02D0B4
:1003A0005E68122E13D190684F000326BE40B04302
:1003B0004F00DE68BE4030439060506801268E409A
:1003C000B0431E79C6F300168E4030435060D068AB
:1003D0004F000326BE40B0434F009E68BE403043EE
:1003E000D0605E6806F08056B6F1805FA8D100BF8D
:1003F000444E366846F48046424F3E603E4636687C
:1004000006F48046009600BF00BF3F4E8F0856F8A6
:1004100027008E07370F0F26BE40B0433B4EB24237
:1004200002D100262EE068E0394EB24201D1012609
:1004300028E0384EB24201D1022623E0364EB242C5
:1004400001D103261EE0354EB24201D1042619E047
:10045000334EB24201D1052614E0324EB24201D1F0
:1004600006260FE0304EB24201D107260AE02F4E99
:10047000B24201D1082605E02D4EB24201D1092633
:1004800000E00A268F073F0FBE4030431E4E8F0804
:1004900046F82700274E3068A0435E6806F4803691
:1004A000B6F5803F00D12043224E3060361D3068C3
:1004B000A0435E6806F40036B6F5003F00D1204345
:1004C0001C4E361D3060361D3068A0435E6806F451
:1004D0008016B6F5801F00D12043164E08363060D6
:1004E000361D3068A0435E6806F40016B6F5001F9E
:1004F00000D120430F4E0C363060491C1029FFF408
:1005000018AFF8BD443802400838014000000240EE
:100510000004024000080240000C024000100240AB
:100520000014024000180240001C0240002002405B
:1005300000240240003C01400AB1816101E00B044B
:100540008361704701480068704700000400002084
:100550000348006803490978084401490860704766
:10056000040000200C00002010B5032000F08CF8DF
:10057000002000F005F800F029F8002010BD000070
:1005800070B504460E4800784FF47A71B1FBF0F074
:100590000C490968B1FBF0F5284600F04DFC08B1A4
:1005A000012070BD102C07D200222146501E00F001
:1005B0002DF80548046001E00120F2E70020F0E793
:1005C0000C000020100000200800002008B500BF2B
:1005D0000D48006840F080500B49086008460068EC
:1005E00000F08050009000BF00BF00BF081D0068F1
:1005F00040F48040091D08600846006800F480400F
:10060000009000BF00BF08BD403802402DE9F05FF8
:1006100080460D461646002700F0F0FC0746394696
:100620002A46334601F00700C0F1070ABAF1040F69
:1006300002D94FF0040A01E0C0F1070AD14600F1E7
:10064000040ABAF1070F02D24FF0000A01E0A0F14C
:10065000030AD4464FF0010A0AFA09FAAAF1010A7C
:100660000AEA020A0AFA0CFA4FF0010B0BFA0CFB29
:10067000ABF1010B0BEA030B4AEA0B04214640469F
:1006800000F0C4FCBDE8F09F00BF00F00702064B7D
:1006900019684FF6FF031940044B0B4343EA02214C
:1006A000014B196000BF70470CED00E00000FA0537
:1006B00038B5002400BF2048006840F080501E4933
:1006C00008600846006800F08050009000BF00BF3E
:1006D0001A48006840F4803018490860FFF732FF7C
:1006E000044607E0FFF72EFF001BB0F57A7F01D923
:1006F000032038BD1148406800F48030B0F5803FD9
:10070000F0D10E48006840F400300C490860FFF753
:1007100019FF044607E0FFF715FF001BB0F57A7FCD
:1007200001D90320E5E70548406800F40030B0F542
:10073000003FF0D10020DCE740380240007000406C
:1007400070B504460D4600260CB9012070BD5C480A
:10075000006800F00F00A8420ED25948006820F04F
:100760000F002843564908600846006800F00F0053
:10077000A84201D00120E9E7207800F00200022819
:100780001DD1207800F00400042805D14D480068F0
:1007900040F4E0504B490860207800F00800082839
:1007A00005D14848006840F4604046490860454823
:1007B000006820F0F000A1680843424908602078F2
:1007C00000F0010090B36068012807D13D48083867
:1007D0000068C0F34040A0B90120B7E76068022874
:1007E00007D1384808380068C0F3406048B9012094
:1007F000ACE7344808380068C0F3400008B901206D
:10080000A4E73048006820F00300616808432D49E0
:100810000860FFF797FE064609E0FFF793FE801B8E
:1008200041F28831884202D903208FE707E025484A
:10083000006800F00C006168B0EB810FEDD120483A
:10084000006800F00F00A8420ED91D48006820F093
:100850000F0028431A4908600846006800F00F009E
:10086000A84201D0012071E7207800F0040004289C
:1008700007D11448006820F4E050E16808431149AA
:100880000860207800F00800082808D10D480068AA
:1008900020F46040216940EAC1000A49086000F084
:1008A00017F808490968C1F30311074A515CC840A9
:1008B000064908600020FFF763FE002046E70000BD
:1008C000003C0240083802401011000810000020CF
:1008D0002DE9F047002400250026A14625480068A0
:1008E00000F00C0020B1042805D008283AD105E01A
:1008F000DFF8849039E0DFF8849036E01D48001F6F
:10090000006800F03F041B48001F006800F48000EE
:1009100078B11A481749091F0968C1F38811A0FB6B
:1009200001700146224600233846FFF781FC054648
:100930000EE011480F49091F0968C1F38811A0FB97
:1009400001700146224600233846FFF771FC054638
:100950000848001F0068C0F30140401C4600B5FB7A
:10096000F6F902E0DFF8109000BF00BF4846BDE88E
:10097000F0870000083802400024F40040787D0130
:10098000F8B5044600260CB90120F8BD207800F027
:100990000100002871D0F848006800F00C0004281D
:1009A0000DD0F548006800F00C00082813D1F2487B
:1009B000001F006800F48000B0F5800F0BD1EE48F6
:1009C00008380068C0F34040002869D060680028FB
:1009D00066D10120D9E700BF6068B0F5803F08D13B
:1009E000E5480838006840F48030E3490839086079
:1009F0002EE0606868B9E0480838006820F480306C
:100A0000DD49083908600846006820F48020086045
:100A10001EE06068B0F5A02F0DD1D74808380068F7
:100A200040F48020D449083908600846006840F442
:100A3000803008600CE0D0480838006820F480302E
:100A4000CD49083908600846006820F48020086015
:100A500000BF606890B1FFF775FD054606E0FFF73F
:100A600071FD401B642801D903208EE7C248083875
:100A70000068C0F340400028F1D011E0FFF762FDAC
:100A8000054606E0FFF75EFD401B642801D9032000
:100A90007BE7B94808380068C0F340400028F1D12E
:100AA000207800F00200022869D1B348006800F005
:100AB0000C0058B1B048006800F00C0008281CD1A8
:100AC000AD48001F006800F48000B0B9AA4808389B
:100AD0000068C0F3400020B1E068012801D0012087
:100AE00053E7A5480838006820F0F800216940EA7B
:100AF000C100A1490839086041E0E06828B39E4878
:100B00000838006840F001009B4908390860FFF789
:100B100019FD054606E0FFF715FD401B022801D927
:100B2000032032E7944808380068C0F340000028EA
:100B3000F1D091480838006820F0F800216940EAB7
:100B4000C1008D490839086019E08B4808380068F1
:100B500020F00100884908390860FFF7F3FC0546DA
:100B600006E0FFF7EFFC401B022801D903200CE749
:100B7000814808380068C0F340000028F1D120788F
:100B800000F00800082836D16069D0B17A486C308E
:100B9000006840F0010078496C310860FFF7D2FC32
:100BA000054606E0FFF7CEFC401B022801D90320D2
:100BB000EBE671486C300068C0F340000028F1D0CB
:100BC00019E06D486C30006820F001006A496C3112
:100BD0000860FFF7B7FC054606E0FFF7B3FC401BD3
:100BE000022801D90320D0E663486C300068C0F3C6
:100BF00040000028F1D1207800F00400042874D1CE
:100C00005D483830006800F0805080B900BF5A4815
:100C10003830006840F08050574938310860084645
:100C2000006800F08050009000BF00BF01265348CC
:100C3000006800F48070B0B95048006840F48070DB
:100C40004E490860FFF77EFC054606E0FFF77AFC98
:100C5000401B642801D9032097E64848006800F447
:100C600080700028F2D000BFA068012808D1424857
:100C70006830006840F001003F49683108602DE0AD
:100C8000A06868B93C486830006820F001003A4923
:100C9000683108600846006820F0040008601DE024
:100CA000A06805280DD134486830006840F0040081
:100CB0003149683108600846006840F0010008606A
:100CC0000CE02D486830006820F001002A496831A6
:100CD00008600846006820F00400086000BFA068B3
:100CE000A8B1FFF72FFC054609E02EE0FFF72AFC2C
:100CF000401B41F28831884201D9032045E61E4855
:100D000068300068C0F340000028EFD013E0FFF720
:100D100019FC054608E0FFF715FC401B41F288313D
:100D2000884201D9032030E6134868300068C0F3D8
:100D300040000028EFD1012E07D10F48383000685D
:100D400020F080500C4938310860A069F0B30A489F
:100D5000006800F00C00082868D0A06902284DD176
:100D600005480838006820F0807003490839086099
:100D7000FFF7E8FB05460AE0083802400070004033
:100D8000FFF7E0FB401B022801D90320FDE52948BD
:100D90000068C0F340600028F2D1D4E9070108439D
:100DA000616A40EA81110122A06AC2EB500041EA67
:100DB00000412C20005D41EA00613020005D41EAE5
:100DC00000701C49091D0860081F00E030E0006841
:100DD00040F08070091F0860FFF7B4FB054606E08D
:100DE000FFF7B0FB401B022801D90320CDE51148D5
:100DF0000068C0F340600028F2D019E00D48006898
:100E000020F080700B490860FFF79CFB054606E068
:100E1000FFF798FB401B022801D90320B5E50548E0
:100E20000068C0F340600028F2D101E00120ACE589
:100E30000020AAE50038024070B504462546681E29
:100E4000B0F1807F01D301200FE0681E4FF0E02158
:100E500048610F214FF0FF3000F0D8F800204FF02C
:100E6000E021886107200861002070BD00BFFEE717
:100E700000B587B0142102A8FFF712FA00BF10488E
:100E8000006840F002000E4908600846006800F063
:100E90000200019000BF00BF002244F28101094816
:100EA000FFF74AFB44F281000290012003900020EA
:100EB0000490059002A90348FFF732FA07B000BD7D
:100EC000303802400004024000BFFEE77047704720
:100ED000704710B5FFF73CFB10BD000000B593B0A4
:100EE000342106A8FFF7DCF9142101A8FFF7D8F98F
:100EF00000BF2648006840F080502449086008463A
:100F0000006800F08050009000BF00BF00BF204884
:100F1000006840F440401E4908600846006800F43C
:100F20004040009000BF00BF0220069001200990C1
:100F300010200A9002200C9000210D9108210E91A2
:100F4000D8210F9102211091119106A8FFF718FDE9
:100F500008B1FFF7E4F9FFF7ABFB08B1FFF7DFF9E2
:100F60000F20019002200290002003904FF4A05027
:100F700004904FF480500590072101A8FFF7E0FB93
:100F800008B1FFF7CCF913B000BD000040380240B3
:100F9000007000401448006840F470001249086076
:100FA0001248006840F001001049086000200F4915
:100FB000083108600D4800680D4908400B49086079
:100FC0000C48091D0860081F006820F48020091FD4
:100FD0000860002005490C3108604FF000600249AC
:100FE000803908607047000088ED00E0003802405A
:100FF000FFFFF6FE1030002400BFFEE70248006845
:10100000C0F30220704700000CED00E010B500288E
:1010100004DB0A07130E054A135406E00A07140EF0
:10102000034A00F00F031B1FD45410BD00E400E07E
:1010300018ED00E002E008C8121F08C1002AFAD12A
:1010400070477047002001E001C1121F002AFBD148
:1010500070470CB5002101910DE00021009102E0E4
:101060000099491C009146F6781200999142F7D3F5
:101070000199491C019101998142EED30CBD0000F8
:10108000FFF772FAFFF72AFFFFF7F2FE44F2810042
:101090001D49086000201D49087033E01B4908788D
:1010A000C11700EB91718910A0EB810129B9164895
:1010B000006880F48040144908601449087800EB07
:1010C000D0714910A0EB410129B90F48006880F0A8
:1010D00080000D4908600C48006880F001000A4952
:1010E00008604FF49670FFF7B4FF084800780728AF
:1010F00003DB00200549087004E004480078401C28
:1011000002490870CAE700001404024000000020F1
:1011100000000000000000000102030406070809A7
:101120000000000001020304481100080000002034
:1011300014000000341000085C11000814000020A6
:10114000040400004410000800000000000000003B
:0C11500010000000010000000024F4006A
:04000005080001F9F5
:00000001FF
