:020000040800F2
:10000000180400200D020008070C0008930B0008DC
:10001000050C000819030008ED0C000800000000A2
:100020000000000000000000000000000B0C0008B1
:100030001B03000800000000090C00080D0C00085C
:1000400027020008270200082702000827020008EC
:1000500027020008270200082702000827020008DC
:1000600027020008270200082702000827020008CC
:1000700027020008270200082702000827020008BC
:1000800027020008270200082702000827020008AC
:10009000270200082702000827020008270200089C
:1000A000270200082702000827020008270200088C
:1000B000270200082702000827020008270200087C
:1000C000270200082702000827020008270200086C
:1000D000270200082702000827020008270200085C
:1000E000270200082702000827020008270200084C
:1000F000270200082702000827020008270200083C
:10010000270200082702000827020008270200082B
:10011000270200082702000827020008270200081B
:10012000270200082702000827020008270200080B
:1001300027020008270200082702000827020008FB
:1001400027020008270200082702000827020008EB
:1001500027020008270200082702000827020008DB
:1001600027020008270200082702000827020008CB
:1001700027020008270200082702000800000000EC
:1001800027020008270200082702000827020008AB
:10019000270200082702000827020008270200089B
:1001A000270200082702000827020008270200088B
:1001B000270200082702000827020008270200087B
:1001C000270200082702000800000000270200089C
:1001D000270200082702000827020008270200085B
:1001E000270200082702000827020008270200084B
:1001F0002702000827020008DFF80CD000F07AF888
:1002000000480047310D00081804002006488047C8
:1002100006480047FEE7FEE7FEE7FEE7FEE7FEE7EB
:10022000FEE7FEE7FEE7FEE7990C0008F90100088B
:100230002DE9F05F0546002092469B46884606461B
:10024000814640241BE0284641464746224600F0AE
:1002500041F853465A46C01A914110D311461846E8
:10026000224600F028F82D1A67EB01084F46224677
:100270000120002100F01FF817EB00094E41201E5D
:10028000A4F10104DFDC484631462A464346BDE876
:10029000F09FD2B201E000F8012B491EFBD270475B
:1002A0000022F6E710B513460A4604461946FFF742
:1002B000F0FF204610BD202A04DB203A00FA02F1AC
:1002C000002070479140C2F1200320FA03F3194344
:1002D00090407047202A04DB203A21FA02F00021E6
:1002E000704721FA02F3D040C2F120029140084346
:1002F00019467047064C074D06E0E06840F00103E0
:1003000094E8070098471034AC42F6D3FFF778FF23
:10031000B40D0008D40D0008FEE7704770B5044620
:1003200000F004F90546601C02D00448007804443B
:1003300000F0FCF8401BA042FAD370BD040000207E
:100340002DE9F84FDFF89CE100224FF001084FF053
:10035000030B4FF00F0A00BF0B6808FA02F42340AA
:10036000A34271D14D68022D01D0122D0FD1D508B5
:100370000E69570700EB8505A9462D6AFF0E0AFA9C
:1003800007FCBE4025EA0C052E43C9F820600F7912
:10039000550006680BFA05FC07F0030726EA0C0671
:1003A000AF40374307604E68012E05D0022E03D0C0
:1003B000112E01D0122E0ED18668CF6826EA0C06C7
:1003C000AF403743876046680F79A643C7F30017ED
:1003D000974037434760C4688E6824EA0C04AE40F7
:1003E0002643C6604C68E40075D53F4C256845F44B
:1003F00080452560246822F00306950704F48044B4
:1004000000943A4C2D0F2644D6F80848DFF8E0C097
:100410000AFA05F7604524EA070401D100272EE017
:10042000344FB84201D1012729E0334FB84201D1FE
:10043000022724E0314FB84201D103271FE0304F9B
:10044000B84202D104271AE045E02E4FB84201D14C
:10045000052714E02C4FB84201D106270FE02B4F9F
:10046000B84201D107270AE0294FB84201D1082735
:1004700005E0284FB84201D1092700E00A27AF4024
:1004800027437546C6F808784E68DEF80040F60344
:1004900024EA030400D51C43124E2C60361D4D681F
:1004A0003468AD0324EA030400D51C430D4F3460C7
:1004B00008374D683C68ED0224EA030400D51C436C
:1004C000084D3C600C354E682C68B60224EA0304E3
:1004D00000D51C432C60521C102AFFF43DAFBDE830
:1004E000F88F0000003C01404438024000300140D9
:1004F000000002400004024000080240000C0240DC
:10050000001002400014024000180240001C02408B
:1005100000200240002402400069084000D0012071
:1005200070470AB1816170470904FBE701488068A0
:1005300070470000040000200248816802781144DE
:100540008160704704000020032010B500F060F8BF
:10055000002000F005F800F023F8002010BD000096
:1005600070B50D4D04464FF47A700C4A2978126824
:10057000B0FBF1F0B2FBF0F000F0F8FA48B9102C43
:1005800007D200222146501E00F022F800206C60A5
:1005900070BD012070BD000004000020100000208C
:1005A0000A4808B5016841F080510160006800F018
:1005B000805000900548001D016841F480410160B1
:1005C000006800F48040009008BD00004038024000
:1005D0000E4BF0B41B680D46C3F30223C3F10706AC
:1005E000042E00D90426191D072901D2002300E09A
:1005F000DB1E012404FA06F19C40491E2940641EBA
:10060000994014402143F0BC00F071BB0CED00E0B8
:10061000064900F0070210B54FF6FF040868044BC6
:10062000204040EA02201843086010BD0CED00E0B5
:100630000000FA051848F8B5016841F080510160E2
:100640000068164C00F080500090206840F4803024
:100650002060FFF76BFF4FF47A76054605E000BF98
:10066000FFF764FF401BB0420FD86068C003F7D5A6
:10067000206840F400302060FFF758FF054606E090
:10068000FFF754FF401BB04201D90320F8BD60685A
:100690008003F5D50020F8BD4038024000700040CE
:1006A0002DE9F04705000F4663D0444E306800F056
:1006B0000F00B84209D2306820F00F003843306094
:1006C000306800F00F00B84253D128683C4C8107D5
:1006D00012D5400703D5206840F4E0502060287808
:1006E000000703D5206840F460402060A9682068B6
:1006F00020F0F000084320602878C0072AD0304955
:1007000068680839012810D00968022810D08907C4
:1007100000292EDA216821F0030101432160FFF74F
:1007200005FF804641F288390DE009688903EFE74B
:100730008901EDE7FFF7FAFEA0EB0801494502D970
:100740000320BDE8F0876868216801F00C01B1EB77
:10075000800FEFD1306800F00F00B8420BD930683D
:1007600020F00F0038433060306800F00F00B842CE
:1007700001D00120E5E72878400705D5E968206821
:1007800020F4E050084320602878000706D5286947
:10079000216821F4604141EAC000206000F016F8B1
:1007A0002168084AC1F30311515CC840064908603A
:1007B0000020FFF7D5FE0020C3E70000003C024008
:1007C00008380240A40D000810000020154910B59B
:1007D0001548096811F00C0213D01449042A0FD0EF
:1007E000082A0ED10F4C241F2268236802F03F0212
:1007F0005B0207D52068C0F38810A0FB010106E06A
:10080000084610BD2168C1F38811A1FB0001002337
:10081000FFF70EFD2168C1F30141491C4900B0FBFF
:10082000F1F010BD083802400024F40040787D014A
:100830002DE9F84F05004FF000076ED02878DFF85B
:100840002093A9F1040AC007AAF104044CD0D9F8F6
:1008500000104846C1F38101012908D00068C0F3A7
:10086000810002280AD1DAF80000400206D520688B
:10087000800339D568680028DFD035E06868B0F5B6
:10088000803F0BD010B1B0F5A02F11D0206820F41C
:1008900080302060206820F4802002E0206840F44E
:1008A00080302060686890B1FFF740FE06460AE09D
:1008B000206840F480202060F0E700BFFFF736FE9C
:1008C000801B642872D820688003F7D50CE0FFF7FE
:1008D0002DFE064605E000BFFFF728FE801B6428BA
:1008E000F0D820688003F7D42878800742D5D9F85B
:1008F0000010484611F00C0F08D00068C0F38100CA
:1009000002280BD1DAF80000400207D420688007E3
:1009100018D5E868012800D114E01EE1E868002835
:10092000206817D040F001002060FFF7FFFD064669
:1009300005E000BFFFF7FAFD801B0228C2D820683F
:100940008007F7D52869216821F0F80141EAC00045
:1009500020600FE020F001002060FFF7E7FD064671
:1009600005E000BFFFF7E2FD801B02281ED82068CB
:100970008007F7D42878000729D5794869696C3051
:1009800000298046016812D041F001010160FFF7A3
:10099000CDFD064605E000BFFFF7C8FD801B02281D
:1009A00004D8D8F800008007F6D510E089E021F0DF
:1009B00001010160FFF7BAFD064604E0FFF7B6FD4E
:1009C000801B02287DD8D8F800008007F6D428784C
:1009D00040076BD5DFF8888108F13808D8F80000A7
:1009E000C0000BD4D8F8001041F08051C8F80010B6
:1009F000D8F80000012700F08050009059480168A5
:100A0000C90512D40168834641F480710160FFF783
:100A10008DFD064605E000BFFFF788FD801B6428BA
:100A20004FD8DBF80000C005F6D54D4EA8686836F3
:100A300001280AD008B1052811D0306820F0010043
:100A40003060306820F0040002E0306840F00100BF
:100A50003060A868A0B1FFF769FD83460CE03068FC
:100A600040F004003060F0E7FFF760FDA0EB0B0101
:100A700041F28830814268D830688007F4D50EE0B2
:100A8000FFF754FD834607E0FFF750FDA0EB0B0195
:100A900041F28830814258D830688007F4D42FB1B1
:100AA000D8F8001021F08051C8F80010A869E0B310
:100AB000D9F80010C1F3810102294ED00228206824
:100AC00000E042E020F08070206003D0FFF72EFDB0
:100AD00005463DE0FFF72AFD064604E0FFF726FD48
:100AE000801B022831D820688001F7D4D5E909217C
:100AF000DFF874C0D5E9070695F830304F0895F84F
:100B00002C1030430CEB074545EA8212104340EAB3
:100B1000016040EA0370CAF80000206840F080706D
:100B20002060FFF703FD054605E014E0FFF7FEFC3B
:100B3000401B022809D820688001F7D50BE000BFD0
:100B4000FFF7F4FC401B022802D90320BDE8F88F10
:100B500020688001F4D40020F8E70120F6E70000C7
:100B600008380240007000400000FFFF401EB0F156
:100B7000807F10B501D3012010BD4FF0E0246061EB
:100B80000F21601700F0B3F80020A0610721216158
:100B900010BDFEE7F0B587B014216846FFF780FB73
:100BA0001548016841F001010160016801F001018F
:100BB0000591016841F00401016000684FF48076FE
:100BC0000E4F002200F00400314605903846FFF732
:100BD000A8FC00250A48012469460294CDE9004595
:100BE000FFF7AEFB00966946CDE90145384603950F
:100BF000FFF7A6FB07B0F0BD303802400008024006
:100C000000000240FEE7704770477047FFF794BC52
:100C100030B593B034216846FFF742FB14210DA88C
:100C2000FFF73EFB1A48016841F0805101600068FF
:100C300000F0805012901748016841F44041016073
:100C4000006800250DF1200C022400940822D8230E
:100C5000CDE9064500F44040129010218CE81C00BC
:100C600001200B94CDE903016846FFF7E1FDFFF792
:100C7000E1FCE2024FF4A0510F20CDE910120DAAC1
:100C8000072182E831000DA8FFF70AFD13B030BD3F
:100C90004038024000700040104A30B510481468D7
:100CA00000210F4B44F470041460083305680D4AAA
:100CB0000D4C45F00105056019600368051D1340E2
:100CC000074A03600C322C600568E305034C25F4E9
:100CD00080250560803C1160236030BD88ED00E018
:100CE00000380240FFFFF6FE10300024FEE709073F
:100CF00000284FEA116104DB00F1E02080F80014C5
:100D0000704700F00F0000F1E02080F8141D7047DC
:100D100002E008C8121F08C1002AFAD170477047C4
:100D2000002001E001C1121F002AFBD17047000022
:100D3000FFF70AFCFFF76CFFFFF72CFF174C4FF48F
:100D40007A77DFF85880DFF85090154DA615A8F196
:100D5000140820680121C0F3002028704846FFF7DE
:100D6000DBFB0028F5D1012231464046FFF7D9FBD5
:100D70002068C0F3002028703846FFF7CFFA002221
:100D800031464046FFF7CDFB2068C0F300202870B5
:100D90003846FFF7C3FADCE70000024014080240BF
:100DA0000000002000000000000000000102030419
:100DB00006070809D40D00080000002014000000F8
:100DC000100D0008E80D00081400002004040000C5
:100DD000200D0008000000000100000010000000CD
:080DE000000000000024F400F3
:04000005080001F9F5
:00000001FF
