:020000040800F2
:10000000E00400200D0200086318000863170008D0
:100010006118000851040008151D000800000000C8
:100020000000000000000000000000006718000849
:100030005304000800000000651800086918000853
:1000400027020008270200082702000827020008EC
:1000500027020008270200082702000827020008DC
:1000600027020008270200082702000827020008CC
:1000700027020008270200082702000827020008BC
:1000800027020008270200082702000827020008AC
:10009000270200082702000827020008270200089C
:1000A000270200082702000827020008270200088C
:1000B000270200082702000827020008270200087C
:1000C000270200082702000827020008270200086C
:1000D000270200082702000827020008270200085C
:1000E000270200082702000827020008270200084C
:1000F000270200082702000827020008270200083C
:10010000270200082702000827020008270200082B
:10011000270200082702000827020008270200081B
:10012000270200082702000827020008270200080B
:1001300027020008270200082702000827020008FB
:1001400027020008270200082702000827020008EB
:1001500027020008270200082702000827020008DB
:1001600027020008270200082702000827020008CB
:1001700027020008270200082702000800000000EC
:1001800027020008270200082702000827020008AB
:10019000270200082702000827020008270200089B
:1001A000270200082702000827020008270200088B
:1001B000270200082702000827020008270200087B
:1001C000270200082702000800000000270200089C
:1001D000270200082702000827020008270200085B
:1001E000270200082702000827020008270200084B
:1001F0002702000827020008DFF80CD000F07AF888
:100200000048004751220008E004002006488047CB
:1002100006480047FEE7FEE7FEE7FEE7FEE7FEE7EB
:10022000FEE7FEE7FEE7FEE709190008F90100080E
:100230002DE9F05F0546002092469B46884606461B
:10024000814640241BE0284641464746224600F0AE
:1002500041F853465A46C01A914110D311461846E8
:10026000224600F028F82D1A67EB01084F46224677
:100270000120002100F01FF817EB00094E41201E5D
:10028000A4F10104DFDC484631462A464346BDE876
:10029000F09FD2B201E000F8012B491EFBD270475B
:1002A0000022F6E710B513460A4604461946FFF742
:1002B000F0FF204610BD202A04DB203A00FA02F1AC
:1002C000002070479140C2F1200320FA03F3194344
:1002D00090407047202A04DB203A21FA02F00021E6
:1002E000704721FA02F3D040C2F120029140084346
:1002F00019467047064C074D06E0E06840F00103E0
:1003000094E8070098471034AC42F6D3FFF778FF23
:10031000F8220008182300084A496FF0706210B5EF
:10032000D1F8043323F44033C1F80433D1F8043353
:1003300044682343C1F8043301684B6823F4807395
:100340004B60016803694C6844EA03234B60016811
:100350004B6823F040734B60016884684B6823430B
:100360004B6001688B6823F400638B600168C4688C
:100370008B6823438B60816AD14201688A6822F0CE
:1003800070628A6001680DD0836A8A681A438A6045
:1003900001688A6822F040528A600168C36A8A68EC
:1003A0001A4302E08A6822F040528A6001688A6833
:1003B00022F002028A60016882698B6843EA420285
:1003C0008A6090F820100029016811D01E4A4B68FD
:1003D00043F400634B6001684B6823F460434B6057
:1003E0000168446A4B6802EB443213434B6003E0FC
:1003F0004A6822F400624A600168144BCA6A22F417
:100400007002CA620168848BCA6A03EB04531A4300
:10041000CA6201688A6822F400728A60016890F8F2
:1004200030208B6843EA42228A6001688A6822F49D
:1004300080628A60016840698A6842EA8020886038
:1004400010BD00000020014000E0FFFF0000F0FFB1
:10045000FEE7704770470000F8B50025009590F85A
:100460003C20012A18D0012280F83C200A6807238A
:100470004E4C0668092A1AD90A3A02EB4207F2687A
:10048000BB409A43F2600E680268A64206D10B7A1E
:10049000D66846EA036308E00220F8BD0A3E8B688E
:1004A000D76806EB4606B3403B43D3600EE002EB51
:1004B00042073269BB409A43326103680E788A680A
:1004C0001F6906EB4606B2403A431A614A681F2389
:1004D000072A13D20668521E02EB8207726BBB40DA
:1004E0009A43726303680E790A88761E5F6B92B234
:1004F00006EB8606B2403A435A6327E006680D2AA7
:1005000012D2D21F02EB8207326BBB409A43326396
:1005100002680E790B88F61F176B9BB206EB8606F6
:10052000B3403B43136311E00D3A02EB8207F26ADA
:10053000BB409A43F26202680E790B880D3ED76A7F
:100540009BB206EB8606B3403B43D362184A03686E
:10055000934208D10B68122B05D1D2F8043343F42F
:100560008003C2F80433036893421AD10B68A34294
:1005700001D0112B15D1D2F8043343F40003C2F893
:1005800004330968A1420CD10A490B4A0968B1FB3E
:10059000F2F101EB8101490000E0491E00910029C0
:1005A000FBD180F83C500020F8BD00001200001084
:1005B000002001401000002040420F000068C06C85
:1005C000704770B504004FF0000503D0206C002682
:1005D00010B107E0012070BD204600F01DF86664F0
:1005E00084F83C60206CC00610D4206C20F4885045
:1005F00040F0020020642046FFF78EFE6664206C07
:1006000020F0020040F00100206400E0012584F8A1
:100610003C60284670BD000010B586B00446142129
:100620006846FFF73DFE1149206888421BD11048FB
:10063000016841F480710160006800F480700590E9
:100640000B481438016841F004010160006803217F
:10065000002200F00400059001208DE80700054805
:10066000694600F0DBF806B010BD00000020014034
:1006700044380240000802402DE9F0410446006879
:100680000D460027816849050BD58068C00508D54F
:10069000206C84F83C7040F0200020640120BDE80C
:1006A000F08100F0ADF906460FE0681C0DD025B1D1
:1006B00000F0A6F9801BA84207D9206C84F83C7092
:1006C00040F0040020640320E9E720680068800708
:1006D000EBD521686FF012000860206C40F40070C8
:1006E00020642068816811F0405F13D1A16989B945
:1006F000C16A11F4700F02D0806840050AD4206CE2
:1007000020F480702064206CC00403D4206C40F07E
:10071000010020640020C2E718B50022009290F882
:100720003C10012907D0012180F83C1001688B683A
:10073000DB0702D011E0022018BD8C682A4B44F080
:1007400001048C6029490968B1FBF3F101EB410117
:1007500000E0491E00910029FBD103689968C90790
:1007600040D0016C40F20164A14341F48071016406
:100770005968490505D5016C21F4005141F48051B7
:100780000164016CC90404D5416C21F00601416487
:1007900000E042646FF02204154980F83C201C60A0
:1007A000D1F80423D20607D002688A420AD193689E
:1007B00013F0405F02D005E000680BE0936843F05F
:1007C00080439360D1F80413C9060BD4006809492B
:1007D000884207D1816811F0405F03D1816841F000
:1007E00080418160002018BD40420F0010000020B1
:1007F000002001400022014070B5044600F000F9DD
:100800000546601C02D004480078044400F0F8F863
:10081000401BA042FAD370BD040000202DE9F84F20
:10082000DFF89CE100224FF001084FF0030B4FF07E
:100830000F0A00BF0B6808FA02F42340A34271D1EB
:100840004D68022D01D0122D0FD1D5080E69570722
:1008500000EB8505A9462D6AFF0E0AFA07FCBE408B
:1008600025EA0C052E43C9F820600F79550006686B
:100870000BFA05FC07F0030726EA0C06AF403743E6
:1008800007604E68012E05D0022E03D0112E01D034
:10089000122E0ED18668CF6826EA0C06AF40374389
:1008A000876046680F79A643C7F300179740374320
:1008B0004760C4688E6824EA0C04AE402643C660D4
:1008C0004C68E40075D53F4C256845F480452560AB
:1008D000246822F00306950704F4804400943A4CFF
:1008E0002D0F2644D6F80848DFF8E0C00AFA05F7CD
:1008F000604524EA070401D100272EE0344FB842B6
:1009000001D1012729E0334FB84201D1022724E069
:10091000314FB84201D103271FE0304FB84202D116
:1009200004271AE045E02E4FB84201D1052714E014
:100930002C4FB84201D106270FE02B4FB84201D10E
:1009400007270AE0294FB84201D1082705E0284FC0
:10095000B84201D1092700E00A27AF402743754676
:10096000C6F808784E68DEF80040F60324EA03046F
:1009700000D51C43124E2C60361D4D683468AD0303
:1009800024EA030400D51C430D4F346008374D683A
:100990003C68ED0224EA030400D51C43084D3C608A
:1009A0000C354E682C68B60224EA030400D51C43BB
:1009B0002C60521C102AFFF43DAFBDE8F88F0000F8
:1009C000003C014044380240003001400000024039
:1009D0000004024000080240000C024000100240E7
:1009E0000014024000180240001C02400020024097
:1009F000002402400AB1816170470904FBE700004E
:100A000001488068704700000400002002488168A7
:100A1000027811448160704704000020032010B563
:100A200000F060F8002000F005F800F023F8002046
:100A300010BD000070B50D4D04464FF47A700C4A9D
:100A400029781268B0FBF1F0B2FBF0F000F0B6FDCF
:100A500048B9102C07D200222146501E00F022F87F
:100A600000206C6070BD012070BD000004000020FB
:100A7000100000200A4808B5016841F0805101606B
:100A8000006800F0805000900548001D016841F4A6
:100A900080410160006800F48040009008BD0000C3
:100AA000403802400E4BF0B41B680D46C3F30223DE
:100AB000C3F10706042E00D90426191D072901D207
:100AC000002300E0DB1E012404FA06F19C40491ECD
:100AD0002940641E994014402143F0BC01F030B914
:100AE0000CED00E0064900F0070210B54FF6FF04D8
:100AF0000868044B204040EA02201843086010BDFB
:100B00000CED00E00000FA051848F8B5016841F066
:100B1000805101600068164C00F080500090206801
:100B200040F480302060FFF76BFF4FF47A76054683
:100B300005E000BFFFF764FF401BB0420FD86068BC
:100B4000C003F7D5206840F400302060FFF758FF5D
:100B5000054606E0FFF754FF401BB04201D90320D1
:100B6000F8BD60688003F5D50020F8BD403802402C
:100B7000007000402DE9F84F04460078DFF8249417
:100B80004FF000063746C0070ED0D9F8001021F408
:100B90000001C9F80010D9F80010626B1143C9F8C0
:100BA0000010606B00B90126FE4D206884350003FB
:100BB0000ED5E16B286820F4401008432860E06BF4
:100BC000B0F5801F01D010B102E0012600E001273E
:100BD00020684FF4800BC0020CD5216C286820F4EB
:100BE000400008432860206C584501D1012601E0EF
:100BF00000B901272068C10100D50126800666D50D
:100C0000E8483830016841F0805101600068DFF841
:100C100098A300F080500090DAF8001041F4807141
:100C2000CAF80010FFF7ECFE804605E0FFF7E8FE8B
:100C3000A0EB080064287DD8DAF80000C005F5D5DF
:100C4000DFF8608308F16808D8F8000010F44070FD
:100C50002AD0218E01F44071814225D0D8F80010AD
:100C6000D8F8002021F4407142F48032C8F8002006
:100C7000D8F8002022F48032C8F80020C8F800100C
:100C8000D8F80000C0070FD0FFF7BAFE824607E091
:100C9000FFF7B6FEA0EB0A0141F288308142CAD8C4
:100CA000D8F800008007F3D5206BC0F30121032999
:100CB0007ED0D9F8001021F4F811C9F80010228E66
:100CC000D8F80010C2F30B021143C8F800102078C6
:100CD000C00607D5286820F0807028602868A16BBE
:100CE000084328602188AF488830490405D5626EE2
:100CF000016821F44031114301602188090405D5C0
:100D0000A26E016821F44021114301602168C903EA
:100D100005D5E26E016821F440111143016021689C
:100D2000890305D5226F016821F440011143016058
:100D3000217800E034E1490605D5626C016821F0B4
:100D40000301114301602178090605D5A26C0168F1
:100D500021F00C01114301602188C90505D5E26C21
:100D6000016821F03001114301602188890505D512
:100D7000226D016821F0C0011143016021884905FD
:100D800005D5626D016821F440711143016021882D
:100D9000090505D5A26D016821F440611143016088
:100DA0002188C90407D5E26D016821F4405100E0B3
:100DB0005FE0114301602188890405D5226E016836
:100DC00021F44041114301602168490205D5A26F19
:100DD000016821F080611143016021684FF0006AD1
:100DE000890209D5E26F016821F0006111430160B9
:100DF000E16F514500D1012721680A0700D501277D
:100E0000490305D5626F016821F04071114301600B
:100E10002168090206D5D4F88020016821F08051AC
:100E2000114301602168490106D5D4F88420016886
:100E300021F00051114301602068000106D5D4F86B
:100E40008810286820F00070084328602068C000DF
:100E500006D5D4F88C10286820F0806008432860FC
:100E6000DFF84891012E0ED02068B0F1007F0AD043
:100E70008FE04F4AD9F80030104023F4F8120243B3
:100E8000C9F800201BE7D9F800004E4620F080602A
:100E9000C9F80000FFF7B4FD804605E0FFF7B0FD9C
:100EA000A0EB080064287BD830680001F6D42178D4
:100EB0003C487C30C90712D0616B81B9237A6268E3
:100EC0000168D0F800C09201C1F3014142EA014239
:100ED000CCF3036142EA016141EA037101602168D8
:100EE0000A0303D5E26BB2F5801F04D0C9021AD5FC
:100EF000216C594517D16368016894F80CC00268E9
:100F00009B01C1F3014143EA0141C2F3027241EA8C
:100F10000C6141EA027101602968626A21F01F01D7
:100F2000521E114329602168C90110D5238A6268C5
:100F30000168D0F800C09201C1F3036142EA0342A4
:100F400042EA0162CCF3027142EA01710160216858
:100F500089010CD56168228A237B94F808C0890135
:100F600041EA024141EA036141EA0C7101603168E2
:100F7000B04641F080613160FFF742FD064604E073
:100F8000FFF73EFD801B64280AD8D8F80000000156
:100F9000F6D5E7B3D9F800004E4620F0805009E0BE
:100FA0007BE000000838024000700040003802403A
:100FB000FFFCFF0FC9F80000FFF722FD074604E021
:100FC000FFF71EFDC01B642867D83068C04380004F
:100FD000F6D5216835480A0301D5E26B1AB1C9027A
:100FE0001DD5216CD9B963690168277E02689B0110
:100FF000C1F3014143EA0143C2F3027143EA0762CC
:1010000042EA0171016029686FF0FF0300E04BE0E4
:10101000A26A21F4F85103EB0222114329602168EE
:10102000890212D5E16F51450FD1238C62690168A5
:1010300007689201C1F3036142EA034242EA016296
:10104000C7F3027142EA017101602178090716D5E0
:1010500061690268D0F800C08B01277FC2F3036288
:10106000CCF3014143EA014141EA026141EA0771DF
:1010700001602868E16A20F4403008432860306845
:1010800040F080503060FFF7BBFC044608E000BF32
:10109000FFF7B6FC001B642802D90320BDE8F88FD7
:1010A0003068C0438000F3D40020F7E7883802405E
:1010B0002DE9F04705000F4663D0444E306800F03C
:1010C0000F00B84209D2306820F00F00384330607A
:1010D000306800F00F00B84253D128683C4C8107BB
:1010E00012D5400703D5206840F4E05020602878EE
:1010F000000703D5206840F460402060A96820689C
:1011000020F0F000084320602878C0072AD030493A
:1011100068680839012810D00968022810D08907AA
:1011200000292EDA216821F0030101432160FFF735
:1011300067FC804641F288390DE009688903EFE7D2
:101140008901EDE7FFF75CFCA0EB0801494502D9F6
:101150000320BDE8F0876868216801F00C01B1EB5D
:10116000800FEFD1306800F00F00B8420BD9306823
:1011700020F00F0038433060306800F00F00B842B4
:1011800001D00120E5E72878400705D5E968206807
:1011900020F4E050084320602878000706D528692D
:1011A000216821F4604141EAC000206000F036F877
:1011B0002168084AC1F30311515CC8400649086020
:1011C0000020FFF737FC0020C3E70000003C02408E
:1011D00008380240E02200081000002004490548B9
:1011E00009680068044AC1F38221515CC840704715
:1011F0000838024010000020F02200080449054889
:1012000009680068044AC1F34231515CC840704724
:101210000838024010000020F0220008154910B5DF
:101220001548096811F00C0213D01449042A0FD094
:10123000082A0ED10F4C241F2268236802F03F02B7
:101240005B0207D52068C0F38810A0FB010106E00F
:10125000084610BD2168C1F38811A1FB00010023DD
:10126000FEF7E6FF2168C1F30141491C4900B0FBCC
:10127000F1F010BD083802400024F40040787D01F0
:101280002DE9F84F05004FF000076ED02878DFF801
:101290002093A9F1040AC007AAF104044CD0D9F89C
:1012A00000104846C1F38101012908D00068C0F34D
:1012B000810002280AD1DAF80000400206D5206831
:1012C000800339D568680028DFD035E06868B0F55C
:1012D000803F0BD010B1B0F5A02F11D0206820F4C2
:1012E00080302060206820F4802002E0206840F4F4
:1012F00080302060686890B1FFF782FB06460AE004
:10130000206840F480202060F0E700BFFFF778FB02
:10131000801B642872D820688003F7D50CE0FFF7A3
:101320006FFB064605E000BFFFF76AFB801B6428E1
:10133000F0D820688003F7D42878800742D5D9F800
:101340000010484611F00C0F08D00068C0F381006F
:1013500002280BD1DAF80000400207D42068800789
:1013600018D5E868012800D114E01EE1E8680028DB
:10137000206817D040F001002060FFF741FB0646CF
:1013800005E000BFFFF73CFB801B0228C2D82068A5
:101390008007F7D52869216821F0F80141EAC000EB
:1013A00020600FE020F001002060FFF729FB0646D7
:1013B00005E000BFFFF724FB801B02281ED8206831
:1013C0008007F7D42878000729D5794869696C30F7
:1013D00000298046016812D041F001010160FFF749
:1013E0000FFB064605E000BFFFF70AFB801B022843
:1013F00004D8D8F800008007F6D510E089E021F085
:1014000001010160FFF7FCFA064604E0FFF7F8FA75
:10141000801B02287DD8D8F800008007F6D42878F1
:1014200040076BD5DFF8888108F13808D8F800004C
:10143000C0000BD4D8F8001041F08051C8F800105B
:10144000D8F80000012700F080500090594801684A
:10145000C90512D40168834641F480710160FFF729
:10146000CFFA064605E000BFFFF7CAFA801B6428E2
:101470004FD8DBF80000C005F6D54D4EA868683699
:1014800001280AD008B1052811D0306820F00100E9
:101490003060306820F0040002E0306840F0010065
:1014A0003060A868A0B1FFF7ABFA83460CE0306863
:1014B00040F004003060F0E7FFF7A2FAA0EB0B0168
:1014C00041F28830814268D830688007F4D50EE058
:1014D000FFF796FA834607E0FFF792FAA0EB0B01BD
:1014E00041F28830814258D830688007F4D42FB157
:1014F000D8F8001021F08051C8F80010A869E0B3B6
:10150000D9F80010C1F3810102294ED002282068C9
:1015100000E042E020F08070206003D0FFF770FA16
:1015200005463DE0FFF76CFA064604E0FFF768FA6F
:10153000801B022831D820688001F7D4D5E9092121
:10154000DFF874C0D5E9070695F830304F0895F8F4
:101550002C1030430CEB074545EA8212104340EA59
:10156000016040EA0370CAF80000206840F0807013
:101570002060FFF745FA054605E014E0FFF740FA62
:10158000401B022809D820688001F7D50BE000BF76
:10159000FFF736FA401B022802D90320BDE8F88F76
:1015A00020688001F4D40020F8E70120F6E700006D
:1015B00008380240007000400000FFFF401EB0F1FC
:1015C000807F10B501D3012010BD4FF0E024606191
:1015D0000F21601700F0B4FB0020A06107212161FA
:1015E00010BD10B5040002D0606F10B107E00120FB
:1015F00010BD002084F87000204600F025F824205B
:1016000060672068016821F001010160204600F058
:1016100027FA0128ECD0606A10B1204600F09EF94C
:101620002068416821F4904141602068816821F080
:101630002A0181602068016841F0010101602046B3
:10164000BDE8104000F0EEB910B586B00446142194
:101650006846FEF725FE1249206888421ED11148CF
:10166000016841F480210160006800F48020059049
:101670000C481038016841F008010160006802213F
:10168000002200F008000590032307244FF4407067
:101690008DE81F0004486946FFF7C0F806B010BD8A
:1016A0000048004040380240000C02402DE9F84359
:1016B0000446406F1F4616460D4620284FD1CDB137
:1016C000C6B194F87000012849D0012284F8702036
:1016D00021214FF00008C4F87C806167FFF790F982
:1016E0008146A068A4F85060A4F85260B0F5805F0D
:1016F00003D004E00120BDE8F883206910B12E4634
:10170000002510E000260EE08021204600F0D2FAED
:10171000B8B9C6B116F8010B21688862B4F8520056
:10172000401EA4F85200B4F852004B464FF000029D
:1017300000970028E8D14FF04001204600F0BAFAA7
:1017400038B10320D7E735F8020B2168C0F3080051
:10175000E3E720216167002084F87080CBE7022056
:10176000C9E7FEE77FB5154800240125124900941A
:101770002A0401940294039480E8160085610461B0
:101780000F4980F82040C0E90A14C561C46080F8A0
:1017900030404461FEF715FF08B1FEF75BFE0A20FA
:1017A0006946CDE9000505480294FEF755FE00287C
:1017B00001D0FEF74FFE7FBD002001401400002045
:1017C0000100000F30B587B014216846FEF768FDB0
:1017D0001248016841F004010160016801F0040150
:1017E0000591016841F00801016000684FF47064E0
:1017F0000B4D002200F00800214605902846FFF717
:10180000F9F8002100940120CDE901012846039157
:101810006946FFF703F807B030BD000030380240DA
:10182000000802400D48002110B50B4C0C224FF46B
:1018300016530460C0E90131C160C0E9041281613E
:10184000C16101624162FFF7CCFE002803D0BDE810
:101850001040FEF7FFBD10BD004800405C000020B6
:10186000FEE7704770477047FFF7D0B830B5B7B0A4
:10187000342124A8FEF714FD142131A8FEF710FD31
:1018800090216846FEF70CFD1D48016841F080512B
:101890000160006800F0805036901A48016841F4F9
:1018A00040410160006800250DF1B00C0224249431
:1018B0000822D823CDE92A4500F440403690102173
:1018C0008CE81C0001202F94CDE9270124A8FFF704
:1018D000D7FCFFF719F9E2024FF4A0510F20CDE930
:1018E000341231AA072182E8310031A8FFF7E0FB6A
:1018F000E001139500906846FFF73CF937B030BD22
:101900004038024000700040104A30B5104814685A
:1019100000210F4B44F470041460083305680D4A2D
:101920000D4C45F00105056019600368051D134065
:10193000074A03600C322C600568E305034C25F46C
:1019400080250560803C1160236030BD88ED00E09B
:1019500000380240FFFFF6FE1030002490F82410FB
:10196000C90706D00168836A4A6822F400321A4324
:101970004A6090F82410890706D50168C36A4A684E
:1019800022F480321A434A6090F82410490706D5A1
:101990000168036B4A6822F480221A434A6090F877
:1019A0002410090706D50168436B4A6822F40042F7
:1019B0001A434A6090F82410C90606D50168836B63
:1019C0008A6822F480521A438A6090F824108906AB
:1019D00006D50168C36B8A6822F400521A438A60F4
:1019E00090F82410490611D50168036C4A6822F466
:1019F00080121A434A60016CB1F5801F06D101685C
:101A0000436C4A6822F4C0021A434A6090F82410DA
:101A1000090606D50168826C486820F4002010434E
:101A20004860704738B500250446C567FEF7E8FFF3
:101A300003462068006800070BD56FF07E400090D9
:101A4000002220464FF4001100F034F908B10320C1
:101A500038BD2020606784F87050A067002038BD32
:101A60002DE9F04104468068DFF818C2864F2368EC
:101A7000D4E90452E16928431E6800250A438349DA
:101A8000104306EA0C0606431E604FF4004220682D
:101A9000E668436823F44053334343602368A669F0
:101AA000206AD3F808C030432CF4306606439E60A9
:101AB0002068B8420AD1086810F0030052D001280B
:101AC0007BD002287AD003286ED186E0704B9842F2
:101AD0000AD1086810F00C0079D004287BD00828BF
:101AE00077D00C2860D178E06A4B98420AD1086818
:101AF00010F030006BD010286DD0202869D030282D
:101B000052D16AE0644B98420AD1086810F0C000D4
:101B10005DD040285FD080285BD0C02844D15CE0F5
:101B20005E4B98420DD1086810F440704FD0B0F56C
:101B3000807F50D0B0F5007F4BD0B0F5407F33D1DF
:101B40004BE0574B98420FD1086810F4406009D021
:101B5000B0F5806F3FD0B0F5006F3AD0B0F5406F70
:101B600022D13AE0012120E04E4B98420DD1086885
:101B700010F440502BD0B0F5805F2CD0B0F5005F52
:101B800027D0B0F5405F0FD127E0474B98420BD1EB
:101B9000086810F440401AD0B0F5804F1BD0904236
:101BA00017D0B0F5404F18D01021E0694FF6EF760E
:101BB000904238D109295DD202E00CE009E006E04C
:101BC000DFE801F00D1027582A5858582D00002141
:101BD000EBE70221E9E70421E7E70821E5E7FFF762
:101BE000FDFA01E0FFF70AFB0146D4F804004900C2
:101BF00001EB5001B1FBF0F080B2A0F11001B14255
:101C000038D84FF6F0732168C0F3420218401043F1
:101C100024E026496068EBE7FFF700FBE4E7606833
:101C20004FF48031E4E7092924D2DFE801F0050808
:101C300019231C2323231F00FFF7D0FA01E0FFF72D
:101C4000DDFA0146D4F8040001EB5001B1FBF0F0DD
:101C500080B2A0F11001B1420CD82168C8600AE03E
:101C600013496068F0E7FFF7D9FAEAE7606802EB2A
:101C70005001EBE701250020206660662846BDE89C
:101C8000F0810000F369FFEF00100140903802403E
:101C90000044004000480040004C0040005000401C
:101CA0000014014000780040007C00400048E8013A
:101CB0000024F4002DE9F041984617460E460446EC
:101CC000069D08E0681C06D0FEF79AFEA0EB08000F
:101CD000A8420BD855B12068C06936EA000017D079
:101CE0000020B842EED00020BDE8F081216820201D
:101CF00000220B6823F4D0730B6021688B6823F0FB
:101D000001038B606067A067032084F87020EBE715
:101D10000120E6E7FEE700000FB4084B10B504A968
:101D200002AA039800F02CF8044602A9002000F053
:101D300058FA204610BC5DF814FB0000E3210008AF
:101D4000090700284FEA116104DB00F1E02080F868
:101D50000014704700F00F0000F1E02080F8141D1F
:101D6000704702E008C8121F08C1002AFAD1704764
:101D70007047002001E001C1121F002AFBD170470B
:101D80002DE9FF4F8DB00F460546002606E02528B9
:101D90000BD0DDE90F1290476D1C761C28780028C7
:101DA000F5D111B03046BDE8F08F0024A246A1461F
:101DB0000122EC4900E0044315F8013F203B02FA00
:101DC00003F00842F7D128782A2810D06FF02F02AC
:101DD0002878A0F13001092914D80AEB8A0102EB16
:101DE000410144F0020400EB010A6D1CF0E701CF51
:101DF0005FEA000A03D544F40054CAF1000A44F033
:101E000002046D1C28782E2817D115F8010F44F014
:101E100004042A280ED06FF02F022878A0F1300198
:101E200009290AD809EB890102EB410100EB0109FC
:101E30006D1CF2E757F8049B6D1C28786C280FD0B6
:101E400006DC4C2817D068280DD06A2814D104E08D
:101E5000742810D07A280FD10DE044F400140AE061
:101E600044F4801401E044F440146978814202D1C2
:101E700004F580146D1C6D1C2A786E2A1FD00CDCB2
:101E8000632A31D004DC002A8BD0582A11D1A3E078
:101E9000642A68D0692A0CD165E0732A2ED004DC4C
:101EA0006F2A73D0702A04D19BE0752A6FD0782AEC
:101EB0006ED01046DDE90F129047761C50E1C4F356
:101EC0000250022806D0032809D0042801CF09D0E7
:101ED000066045E101CFF117C0E9006140E101CFA3
:101EE00006803DE106703BE117F8040B8DF8000019
:101EF00000208DF80100EB46012003E057F804BBF9
:101F00004FF0FF3061074FF0000102D40DE008F1FF
:101F10000101884649450FDA8045F8DB1BF80810B7
:101F20000029F4D108E008F1010188468142FADB7A
:101F30001BF808100029F6D1DDE90F23AAEB0800F1
:101F40008146214600F036F9304400EB080604E0F3
:101F5000DDE90F121BF8010B9047B8F10108F7D229
:101F600021464846F7E00A21C4F302534FF0000B24
:101F70000891022B04D001CFC117032B09D00AE02E
:101F8000FF1D27F00707F7E8020108E032E01FE035
:101F900020E000B2C117042B01D140B2C117031ECB
:101FA00071F1000307DA4FF0000CD0EB0C006CEB82
:101FB00001012D2302E0230504D52B238DF82430C5
:101FC000012303E0E30701D02023F7E7984658E018
:101FD0000A2110E010210EE010204FF0000B0890B5
:101FE0000CE010214FF0000B44F004044FF00809FE
:101FF000089103E008214FF0000B0891C4F302534D
:10200000022B04D001CF0021032B06D006E0FF1DD8
:1020100027F00707F7E8020103E080B2042B00D1A4
:10202000C0B24FF0000823072BD5702A07D0DDF887
:1020300020C08CF0100C5CEA0B0C05D00EE04023A5
:102040008DF82430012308E050EA010306D0302344
:102050008DF824308DF8252002239846DDF820C025
:102060008CF0080C5CEA0B0C0BD150EA010301D197
:10207000630706D530238DF824304FF00108A9F10D
:102080000109582A04D038A20B9208AA0A920BE040
:102090003AA2F9E75B46089AFEF7CAF80B9B9B5CED
:1020A0000A9A521E0A92137050EA0102F2D10A985B
:1020B000ADEB000000F1200B600702D524F4803462
:1020C00001E04FF00109D94502DDA9EB0B0000E06A
:1020D000002000EB0B0141440890AAEB010AE00349
:1020E00006D4DDE90F232146504600F063F806448C
:1020F0004FF0000908E009A911F80900DDE90F1205
:10210000904709F10109761CC145F4DBE0030CD5C9
:10211000DDE90F232146504600F04CF8064404E068
:10212000DDE90F1230209047761C0899481E089070
:102130000029F5DC08E00A980A990078491C0A9100
:10214000DDE90F129047761CBBF10001ABF1010BEA
:10215000F1DC21465046DDE90F2300F019F8064472
:102160006D1C1BE609280100303132333435363717
:1021700038396162636465660000000030313233D3
:102180003435363738394142434445460000000073
:102190002DE9F041044600251E461746880404D464
:1021A00005E039462020B0476D1C641EF9D528464D
:1021B000BDE8F0812DE9F041044600251E46904619
:1021C000C80301D5302700E02027880404D505E0A6
:1021D00041463846B0476D1C641EF9D52846BDE817
:1021E000F0810A68531C0B601070704730B58FB0D7
:1021F000024613A16846FFF78FFD134C2068C169A2
:10220000C9434906FBD44FF47A750F4808222B4680
:102210006946FFF74BFA0DA000680D902068C16970
:10222000C9434906FBD4084802220DA92B46FFF7F3
:102230003DFA4FF49670FEF7DFFA0FB030BD0000A4
:1022400025382E38780000005C0000200A0D0000C0
:10225000FEF7E4FBFFF70AFBFFF7B4FAFFF782FA99
:10226000FFF7E0FA1B48FEF757FA1B4C4FF0706679
:102270001A4D64211748FEF7FFF90028F9D11548D7
:10228000FEF79CF940F6CC4128602868884202D3CA
:102290004FF4706018E0296840F69910814202D32B
:1022A0004FF4E06010E0296840F26660814202D39A
:1022B0004FF4407008E0286840F23331884202D37E
:1022C0004FF4807000E00020266020602868FFF74F
:1022D0008DFFCEE714000020180802400000002007
:1022E00000000000000000000102030406070809C6
:1022F0000000000001020304182300080000002071
:1023000014000000621D00082C23000814000020A7
:10231000CC040000721D0008000000000100000055
:0C23200010000000000000000024F40089
:04000005080001F9F5
:00000001FF
