:020000040800F2
:10000000900400200D0200089714000887130008D0
:1000100095140008190300084919000800000000A1
:100020000000000000000000000000009B14000819
:100030001B03000800000000991400089D1400082C
:1000400027020008270200082702000827020008EC
:1000500027020008270200081D03000827020008E5
:1000600027020008270200082702000827020008CC
:1000700027020008270200082702000827020008BC
:1000800027020008270200082702000827020008AC
:10009000270200082702000827020008270200089C
:1000A000270200082702000827020008270200088C
:1000B000270200082702000827020008270200087C
:1000C000270200082702000827020008270200086C
:1000D000270200082702000827020008270200085C
:1000E0003D03000827020008270200082702000835
:1000F000270200082702000827020008270200083C
:10010000270200082702000827020008270200082B
:10011000270200082702000827020008270200081B
:10012000270200082702000827020008270200080B
:1001300027020008270200082702000827020008FB
:1001400027020008270200082702000827020008EB
:1001500027020008270200082702000827020008DB
:1001600027020008270200082702000827020008CB
:1001700027020008270200082702000800000000EC
:1001800027020008270200082702000827020008AB
:10019000270200082702000827020008270200089B
:1001A000270200082702000827020008270200088B
:1001B000270200082702000827020008270200087B
:1001C000270200082702000800000000270200089C
:1001D000270200082702000827020008270200085B
:1001E000270200082702000827020008270200084B
:1001F0002702000827020008DFF80CD000F07AF888
:10020000004800478D1900089004002006488047E8
:1002100006480047FEE7FEE7FEE7FEE7FEE7FEE7EB
:10022000FEE7FEE7FEE7FEE73D150008F9010008DE
:100230002DE9F05F0546002092469B46884606461B
:10024000814640241BE0284641464746224600F0AE
:1002500041F853465A46C01A914110D311461846E8
:10026000224600F028F82D1A67EB01084F46224677
:100270000120002100F01FF817EB00094E41201E5D
:10028000A4F10104DFDC484631462A464346BDE876
:10029000F09FD2B201E000F8012B491EFBD270475B
:1002A0000022F6E710B513460A4604461946FFF742
:1002B000F0FF204610BD202A04DB203A00FA02F1AC
:1002C000002070479140C2F1200320FA03F3194344
:1002D00090407047202A04DB203A21FA02F00021E6
:1002E000704721FA02F3D040C2F120029140084346
:1002F00019467047064C074D06E0E06840F00103E0
:1003000094E8070098471034AC42F6D3FFF778FF23
:10031000DC190008FC190008FEE77047642010B5DE
:1003200000F01EF8012000F069F8BDE81040024816
:100330004FF4804100F05AB900040240642010B527
:1003400000F00EF84FF4005000F058F8BDE81040EF
:100350000148012100F04AB9000402407047000042
:1003600070B5044600F04EF90546601C02D0044802
:100370000078044400F046F9401BA042FAD370BD57
:1003800000000020B0F5005F10B518D0012815D18D
:1003900017486423032215A100F09AFFC820FFF735
:1003A000DFFF002412486423012212A100F090FF15
:1003B000C820FFF7D5FF641C142CF3DB10BD0C48DC
:1003C0006423032209A100F083FFC820FFF7C8FFC0
:1003D000002407486423012207A100F079FFC82008
:1003E000FFF7BEFF641C142CF3DB10BD2D2D2D0078
:1003F000100000204500000042000000044910B534
:100400000A68024202D00860FFF7BCFF10BD00007E
:10041000143C01402DE9F84FDFF89CE100224FF039
:1004200001084FF0030B4FF00F0A00BF0B6808FAEA
:1004300002F42340A34271D14D68022D01D0122D48
:100440000FD1D5080E69570700EB8505A9462D6A1F
:10045000FF0E0AFA07FCBE4025EA0C052E43C9F838
:1004600020600F79550006680BFA05FC07F00307BA
:1004700026EA0C06AF40374307604E68012E05D0D0
:10048000022E03D0112E01D0122E0ED18668CF6815
:1004900026EA0C06AF403743876046680F79A643CB
:1004A000C7F30017974037434760C4688E6824EA53
:1004B0000C04AE402643C6604C68E40075D53F4C42
:1004C000256845F480452560246822F003069507D9
:1004D00004F4804400943A4C2D0F2644D6F8084882
:1004E000DFF8E0C00AFA05F7604524EA070401D105
:1004F00000272EE0344FB84201D1012729E0334FC5
:10050000B84201D1022724E0314FB84201D103277C
:100510001FE0304FB84202D104271AE045E02E4FC9
:10052000B84201D1052714E02C4FB84201D106276B
:100530000FE02B4FB84201D107270AE0294FB842FC
:1005400001D1082705E0284FB84201D1092700E072
:100550000A27AF4027437546C6F808784E68DEF88C
:100560000040F60324EA030400D51C43124E2C601D
:10057000361D4D683468AD0324EA030400D51C43DE
:100580000D4F346008374D683C68ED0224EA0304DF
:1005900000D51C43084D3C600C354E682C68B602F3
:1005A00024EA030400D51C432C60521C102AFFF4DB
:1005B0003DAFBDE8F88F0000003C014044380240E8
:1005C00000300140000002400004024000080240E8
:1005D000000C0240001002400014024000180240CB
:1005E000001C02400020024000240240426931EA1F
:1005F000020200D10904816170470AB1816170472C
:100600000904FBE7014880687047000000000020F3
:100610000248816802781144816070470000002020
:10062000032010B500F070F8002000F005F800F08D
:1006300023F8002010BD000070B50D4D04464FF4A6
:100640007A700C4A29781268B0FBF1F0B2FBF0F036
:1006500000F0C6FD48B9102C07D200222146501EDA
:1006600000F032F800206C6070BD012070BD000009
:10067000000000200C0000200B4882B0016841F00F
:1006800080510160006800F0805000900648001D15
:10069000016841F480410160006800F480400090EE
:1006A000072002B000F030B840380240002809DBD3
:1006B000410900F01F028900012001F1E021904072
:1006C000C1F80001704700000E4BF0B41B680D46E6
:1006D000C3F30223C3F10706042E00D90426191D13
:1006E000072901D2002300E0DB1E012404FA06F1F1
:1006F0009C40491E2940641E994014402143F0BC8F
:1007000001F023B90CED00E0064900F0070210B536
:100710004FF6FF040868044B204040EA02201843CB
:10072000086010BD0CED00E00000FA051848F8B5AF
:10073000016841F0805101600068164C00F0805063
:100740000090206840F480302060FFF75BFF4FF49A
:100750007A76054605E000BFFFF754FF401BB04224
:100760000FD86068C003F7D5206840F400302060DF
:10077000FFF748FF054606E0FFF744FF401BB04285
:1007800001D90320F8BD60688003F5D50020F8BDCD
:1007900040380240007000402DE9F84F04460078D0
:1007A000DFF824944FF000063746C0070ED0D9F882
:1007B000001021F40001C9F80010D9F80010626B94
:1007C0001143C9F80010606B00B90126FE4D206886
:1007D000843500030ED5E16B286820F440100843EF
:1007E0002860E06BB0F5801F01D010B102E0012657
:1007F00000E0012720684FF4800BC0020CD5216C6B
:10080000286820F4400008432860206C584501D136
:10081000012601E000B901272068C10100D50126A9
:10082000800666D5E8483830016841F080510160A3
:100830000068DFF898A300F080500090DAF800100C
:1008400041F48071CAF80010FFF7DCFE804605E035
:10085000FFF7D8FEA0EB080064287DD8DAF8000086
:10086000C005F5D5DFF8608308F16808D8F8000006
:1008700010F440702AD0218E01F44071814225D0BD
:10088000D8F80010D8F8002021F4407142F48032EA
:10089000C8F80020D8F8002022F48032C8F80020E0
:1008A000C8F80010D8F80000C0070FD0FFF7AAFE64
:1008B000824607E0FFF7A6FEA0EB0A0141F288306E
:1008C0008142CAD8D8F800008007F3D5206BC0F366
:1008D000012103297ED0D9F8001021F4F811C9F8BC
:1008E0000010228ED8F80010C2F30B021143C8F892
:1008F00000102078C00607D5286820F08070286096
:100900002868A16B084328602188AF4888304904D3
:1009100005D5626E016821F44031114301602188E0
:10092000090405D5A26E016821F44021114301603C
:100930002168C90305D5E26E016821F44011114315
:1009400001602168890305D5226F016821F4400107
:1009500011430160217800E034E1490605D5626C5D
:10096000016821F00301114301602178090605D5D2
:10097000A26C016821F00C01114301602188C905B6
:1009800005D5E26C016821F0300111430160218836
:10099000890505D5226D016821F0C0011143016070
:1009A0002188490505D5626D016821F44071114324
:1009B00001602188090505D5A26D016821F4406117
:1009C000114301602188C90407D5E26D016821F453
:1009D000405100E05FE0114301602188890405D5A2
:1009E000226E016821F440411143016021684902EF
:1009F00005D5A26F016821F0806111430160216873
:100A00004FF0006A890209D5E26F016821F00061A8
:100A100011430160E16F514500D1012721680A07A8
:100A200000D50127490305D5626F016821F04071A7
:100A3000114301602168090206D5D4F880200168BD
:100A400021F08051114301602168490106D5D4F895
:100A50008420016821F000511143016020680001E9
:100A600006D5D4F88810286820F000700843286064
:100A70002068C00006D5D4F88C10286820F080606B
:100A800008432860DFF84891012E0ED02068B0F1AD
:100A9000007F0AD08FE04F4AD9F80030104023F48D
:100AA000F8120243C9F800201BE7D9F800004E46AF
:100AB00020F08060C9F80000FFF7A4FD804605E043
:100AC000FFF7A0FDA0EB080064287BD83068000188
:100AD000F6D421783C487C30C90712D0616B81B9CB
:100AE000237A62680168D0F800C09201C1F3014125
:100AF00042EA0142CCF3036142EA016141EA037137
:100B0000016021680A0303D5E26BB2F5801F04D0AF
:100B1000C9021AD5216C594517D16368016894F848
:100B20000CC002689B01C1F3014143EA0141C2F3D9
:100B3000027241EA0C6141EA027101602968626A4D
:100B400021F01F01521E114329602168C90110D5EF
:100B5000238A62680168D0F800C09201C1F3036182
:100B600042EA034242EA0162CCF3027142EA0171B5
:100B70000160216889010CD56168228A237B94F881
:100B800008C0890141EA024141EA036141EA0C716E
:100B900001603168B04641F080613160FFF732FD9D
:100BA000064604E0FFF72EFD801B64280AD8D8F81B
:100BB00000000001F6D5E7B3D9F800004E4620F05A
:100BC000805009E07BE000000838024000700040DF
:100BD00000380240FFFCFF0FC9F80000FFF712FDCC
:100BE000074604E0FFF70EFDC01B642867D8306895
:100BF000C0438000F6D5216835480A0301D5E26B71
:100C00001AB1C9021DD5216CD9B963690168277E63
:100C100002689B01C1F3014143EA0143C2F302713F
:100C200043EA076242EA0171016029686FF0FF033D
:100C300000E04BE0A26A21F4F85103EB02221143D9
:100C400029602168890212D5E16F51450FD1238CAB
:100C50006269016807689201C1F3036142EA0342D5
:100C600042EA0162C7F3027142EA01710160217830
:100C7000090716D561690268D0F800C08B01277F8B
:100C8000C2F30362CCF3014143EA014141EA02614C
:100C900041EA077101602868E16A20F440300843A6
:100CA0002860306840F080503060FFF7ABFC0446AD
:100CB00008E000BFFFF7A6FC001B642802D9032050
:100CC000BDE8F88F3068C0438000F3D40020F7E718
:100CD000883802402DE9F04705000F4663D0444EA6
:100CE000306800F00F00B84209D2306820F00F00E1
:100CF00038433060306800F00F00B84253D12868A4
:100D00003C4C810712D5400703D5206840F4E050E1
:100D100020602878000703D5206840F460402060F8
:100D2000A968206820F0F000084320602878C007F8
:100D30002AD0304968680839012810D0096802288B
:100D400010D0890700292EDA216821F00301014320
:100D50002160FFF757FC804641F288390DE00968B1
:100D60008903EFE78901EDE7FFF74CFCA0EB0801F1
:100D7000494502D90320BDE8F0876868216801F081
:100D80000C01B1EB800FEFD1306800F00F00B842DA
:100D90000BD9306820F00F0038433060306800F025
:100DA0000F00B84201D00120E5E72878400705D5BB
:100DB000E968206820F4E0500843206028780007A4
:100DC00006D52869216821F4604141EAC00020600D
:100DD00000F036F82168084AC1F30311515CC8409D
:100DE000064908600020FFF727FC0020C3E7000049
:100DF000003C024008380240C41900080C000020E2
:100E00000449054809680068044AC1F38221515C1D
:100E1000C8407047083802400C000020D419000870
:100E20000449054809680068044AC1F34231515C2D
:100E3000C8407047083802400C000020D419000850
:100E4000154910B51548096811F00C0213D0144962
:100E5000042A0FD0082A0ED10F4C241F22682368C1
:100E600002F03F025B0207D52068C0F38810A0FBA8
:100E7000010106E0084610BD2168C1F38811A1FBFD
:100E800000010023FFF7D4F92168C1F30141491C97
:100E90004900B0FBF1F010BD083802400024F40016
:100EA00040787D012DE9F84F05004FF000076ED026
:100EB0002878DFF82093A9F1040AC007AAF10404F6
:100EC0004CD0D9F800104846C1F38101012908D05F
:100ED0000068C0F3810002280AD1DAF8000040025D
:100EE00006D52068800339D568680028DFD035E052
:100EF0006868B0F5803F0BD010B1B0F5A02F11D0CD
:100F0000206820F480302060206820F4802002E0F7
:100F1000206840F480302060686890B1FFF772FB71
:100F200006460AE0206840F480202060F0E700BF19
:100F3000FFF768FB801B642872D820688003F7D510
:100F40000CE0FFF75FFB064605E000BFFFF75AFB2A
:100F5000801B6428F0D820688003F7D428788007A5
:100F600042D5D9F80010484611F00C0F08D000689F
:100F7000C0F3810002280BD1DAF80000400207D448
:100F80002068800718D5E868012800D114E01EE128
:100F9000E8680028206817D040F001002060FFF7C3
:100FA00031FB064605E000BFFFF72CFB801B022843
:100FB000C2D820688007F7D52869216821F0F80198
:100FC00041EAC00020600FE020F001002060FFF740
:100FD00019FB064605E000BFFFF714FB801B022843
:100FE0001ED820688007F7D42878000729D57948CB
:100FF00069696C3000298046016812D041F0010116
:101000000160FFF7FFFA064605E000BFFFF7FAFAB6
:10101000801B022804D8D8F800008007F6D510E01D
:1010200089E021F001010160FFF7ECFA064604E0D7
:10103000FFF7E8FA801B02287DD8D8F80000800767
:10104000F6D4287840076BD5DFF8888108F1380896
:10105000D8F80000C0000BD4D8F8001041F080513F
:10106000C8F80010D8F80000012700F08050009068
:1010700059480168C90512D40168834641F480715A
:101080000160FFF7BFFA064605E000BFFFF7BAFAB6
:10109000801B64284FD8DBF80000C005F6D54D4E04
:1010A000A868683601280AD008B1052811D0306830
:1010B00020F001003060306820F0040002E0306869
:1010C00040F001003060A868A0B1FFF79BFA8346AA
:1010D0000CE0306840F004003060F0E7FFF792FA6F
:1010E000A0EB0B0141F28830814268D8306880075C
:1010F000F4D50EE0FFF786FA834607E0FFF782FAA1
:10110000A0EB0B0141F28830814258D8306880074B
:10111000F4D42FB1D8F8001021F08051C8F8001095
:10112000A869E0B3D9F80010C1F3810102294ED0BB
:101130000228206800E042E020F08070206003D0A8
:10114000FFF760FA05463DE0FFF75CFA064604E06B
:10115000FFF758FA801B022831D820688001F7D4A5
:10116000D5E90921DFF874C0D5E9070695F83030D4
:101170004F0895F82C1030430CEB074545EA8212D6
:10118000104340EA016040EA0370CAF8000020689A
:1011900040F080702060FFF735FA054605E014E066
:1011A000FFF730FA401B022809D820688001F7D5E4
:1011B0000BE000BFFFF726FA401B022802D90320EC
:1011C000BDE8F88F20688001F4D40020F8E7012002
:1011D000F6E7000008380240007000400000FFFF02
:1011E000401EB0F1807F10B501D3012010BD4FF03B
:1011F000E02460610F21601700F0A7FB0020A061D0
:101200000721216110BD10B5040002D0606F10B13C
:1012100007E0012010BD002084F87000204600F097
:1012200025F8242060672068016821F00101016031
:10123000204600F02FFA0128ECD0606A10B1204659
:1012400000F0A6F92068416821F4904141602068CF
:10125000816821F02A0181602068016841F0010164
:1012600001602046BDE8104000F0F6B910B586B028
:10127000044614216846FFF713F812492068884293
:101280001ED11148016841F480210160006800F41A
:10129000802005900C481038016841F00801016079
:1012A00000680221002200F00800059003230724B3
:1012B0004FF440708DE81F0004486946FFF7AAF814
:1012C00006B010BD0048004040380240000C02400B
:1012D0002DE9F8430446406F1F4616460D46202868
:1012E0004FD1CDB1C6B194F87000012849D0012288
:1012F00084F8702021214FF00008C4F87C806167D9
:10130000FFF780F98146A068A4F85060A4F8526005
:10131000B0F5805F03D004E00120BDE8F8832069C8
:1013200010B12E46002510E000260EE08021204658
:1013300000F0DAFAB8B9C6B116F8010B2168886274
:10134000B4F85200401EA4F85200B4F852004B46C4
:101350004FF0000200970028E8D14FF040012046EE
:1013600000F0C2FA38B10320D7E735F8020B216844
:10137000C0F30800E3E720216167002084F8708053
:10138000CBE70220C9E7FEE7F0B587B01421684635
:10139000FEF786FF2A48016841F0040101600168F8
:1013A00001F004010591016841F00101016001684B
:1013B00001F001010591016841F00201016001683D
:1013C00001F002010591016841F008010160006827
:1013D00044F281061B4F002200F0080031460590C0
:1013E0003846FFF70AF9184900244FF400508DE8F9
:1013F000130016486946FFF70DF8154801256946A0
:101400000295CDE900501348FFF704F800966946AD
:10141000CDE9015438460394FEF7FCFF0022062074
:101420001146FFF751F90620FFF740F90022282066
:101430001146FFF749F92820FFF738F907B0F0BD4A
:101440003038024000040240000011100008024041
:1014500000002110000002400D48002110B50B4C87
:101460000C224FF416530460C0E90131C160C0E999
:1014700004128161C16101624162FFF7C4FE00286C
:1014800003D0BDE81040FEF769BF10BD0048004022
:1014900010000020FEE7704770477047FFF7B8B8AC
:1014A00030B5B7B0342124A8FEF7FAFE142131A8D4
:1014B000FEF7F6FE90216846FEF7F2FE1D48016831
:1014C00041F080510160006800F0805036901A4869
:1014D000016841F440410160006800250DF1B00C45
:1014E000022424940822D823CDE92A4500F4404060
:1014F000369010218CE81C0001202F94CDE92701A3
:1015000024A8FFF7CFFCFFF711F9E2024FF4A05136
:101510000F20CDE9341231AA072182E8310031A829
:10152000FFF7D8FBE001139500906846FFF734F908
:1015300037B030BD4038024000700040104A30B52E
:101540001048146800210F4B44F4700414600833F1
:1015500005680D4A0D4C45F00105056019600368EA
:10156000051D1340074A03600C322C600568E30533
:10157000034C25F480250560803C1160236030BD5C
:1015800088ED00E000380240FFFFF6FE1030002436
:1015900090F82410C90706D00168836A4A6822F4CB
:1015A00000321A434A6090F82410890706D5016872
:1015B000C36A4A6822F480321A434A6090F82410C1
:1015C000490706D50168036B4A6822F480221A4352
:1015D0004A6090F82410090706D50168436B4A68F1
:1015E00022F400421A434A6090F82410C90606D536
:1015F0000168836B8A6822F480521A438A6090F8EB
:101600002410890606D50168C36B8A6822F400524B
:101610001A438A6090F82410490611D50168036CBA
:101620004A6822F480121A434A60016CB1F5801FA7
:1016300006D10168436C4A6822F4C0021A434A602A
:1016400090F82410090606D50168826C486820F4D9
:10165000002010434860704738B500250446C56730
:10166000FEF7D0FF03462068006800070BD56FF037
:101670007E400090002220464FF4001100F034F923
:1016800008B1032038BD2020606784F87050A0673F
:10169000002038BD2DE9F04104468068DFF818C20B
:1016A000864F2368D4E90452E16928431E68002567
:1016B0000A438349104306EA0C0606431E604FF4B2
:1016C00000422068E668436823F440533343436094
:1016D0002368A669206AD3F808C030432CF430662A
:1016E00006439E602068B8420AD1086810F00300E3
:1016F00052D001287BD002287AD003286ED186E010
:10170000704B98420AD1086810F00C0079D0042878
:101710007BD0082877D00C2860D178E06A4B9842BB
:101720000AD1086810F030006BD010286DD0202846
:1017300069D0302852D16AE0644B98420AD10868D7
:1017400010F0C0005DD040285FD080285BD0C0285A
:1017500044D15CE05E4B98420DD1086810F44070B3
:101760004FD0B0F5807F50D0B0F5007F4BD0B0F5B2
:10177000407F33D14BE0574B98420FD1086810F4AB
:10178000406009D0B0F5806F3FD0B0F5006F3AD01F
:10179000B0F5406F22D13AE0012120E04E4B984253
:1017A0000DD1086810F440502BD0B0F5805F2CD0DC
:1017B000B0F5005F27D0B0F5405F0FD127E0474B71
:1017C00098420BD1086810F440401AD0B0F5804F11
:1017D0001BD0904217D0B0F5404F18D01021E069CF
:1017E0004FF6EF76904238D109295DD202E00CE045
:1017F00009E006E0DFE801F00D1027582A58585894
:101800002D000021EBE70221E9E70421E7E70821A9
:10181000E5E7FFF7F5FA01E0FFF702FB0146D4F830
:101820000400490001EB5001B1FBF0F080B2A0F1DF
:101830001001B14238D84FF6F0732168C0F342026C
:101840001840104324E026496068EBE7FFF7F8FAF8
:10185000E4E760684FF48031E4E7092924D2DFE847
:1018600001F0050819231C2323231F00FFF7C8FAE2
:1018700001E0FFF7D5FA0146D4F8040001EB50016E
:10188000B1FBF0F080B2A0F11001B1420CD8216898
:10189000C8600AE013496068F0E7FFF7D1FAEAE7A9
:1018A000606802EB5001EBE70125002020666066CE
:1018B0002846BDE8F0810000F369FFEF0010014009
:1018C000903802400044004000480040004C004076
:1018D000005000400014014000780040007C0040AF
:1018E0000048E8010024F4002DE9F041984617462D
:1018F0000E460446069D08E0681C06D0FEF782FEF0
:10190000A0EB0800A8420BD855B12068C06936EAA0
:10191000000017D00020B842EED00020BDE8F081D2
:101920002168202000220B6823F4D0730B6021680B
:101930008B6823F001038B606067A067032084F845
:101940007020EBE70120E6E7FEE7090700284FEAF1
:10195000116104DB00F1E02080F80014704700F012
:101960000F0000F1E02080F8141D704702E008C865
:10197000121F08C1002AFAD170477047002001E009
:1019800001C1121F002AFBD17047000008B5FEF705
:1019900047FEFFF785FDFFF7F7FCFFF75DFD2E26FD
:1019A0004FF47A744FF4C8750548012223466946FE
:1019B0008DF80060FFF78CFC2846FEF7D1FCF3E7BA
:1019C00010000020000000000000000001020304DD
:1019D000060708090000000001020304FC190008C2
:1019E00000000020100000006C1900080C1A00080C
:1019F00010000020800400007C1900080100000095
:0C1A000010000000000000000024F400B2
:04000005080001F9F5
:00000001FF
